:020000040800F2
:10000000000003205D0E0008852A0008872A0008EA
:10001000892A00088B2A00088D2A000800000000A9
:10002000000000000000000000000000A18A00089D
:100030008F2A000800000000318B0008C1830008EF
:10004000AD0E0008AD0E0008AD0E0008AD0E0008A4
:10005000AD0E0008AD0E0008AD0E0008AD0E000894
:10006000AD0E0008AD0E0008AD0E0008AD0E000884
:10007000AD0E0008AD0E0008AD0E0008AD0E000874
:10008000AD0E0008AD0E0008912A0008AD0E000864
:10009000AD0E0008AD0E0008AD0E0008AD0E000854
:1000A000AD0E0008AD0E0008AD0E0008AD0E000844
:1000B000AD0E0008AD0E0008AD0E0008AD0E000834
:1000C000AD0E0008AD0E0008AD0E0008AD0E000824
:1000D000AD0E0008AD0E0008AD0E0008AD0E000814
:1000E000AD0E0008AD0E0008AD0E0008AD0E000804
:1000F000AD0E0008AD0E0008AD0E0008AD0E0008F4
:10010000AD0E0008AD0E0008AD0E0008AD0E0008E3
:10011000AD0E0008AD0E00089D2A0008A92A0008AF
:10012000AD0E0008AD0E0008AD0E0008AD0E0008C3
:100130003D2B0008AD0E0008AD0E0008AD0E000806
:10014000AD0E0008AD0E0008AD0E0008AD0E0008A3
:10015000AD0E0008AD0E0008AD0E0008AD0E000893
:10016000AD0E0008AD0E0008AD0E0008AD0E000883
:10017000AD0E0008AD0E0008AD0E00080000000036
:10018000AD0E0008AD0E0008AD0E0008AD0E000863
:10019000AD0E0008AD0E0008AD0E0008AD0E000853
:0C01A000492B0008AD0E0008552B00088C
:1001B00010B5054C237833B9044B13B10448AFF3A1
:1001C00000800123237010BD6401002000000000A6
:1001D000785D020808B5034B1BB103490348AFF330
:1001E000008008BD0000000068010020785D020862
:1001F00001F0FF01102A2BDB10F0070F08D010F8D8
:10020000013B013A8B422DD010F0070F42B3F6D1DB
:10021000F0B441EA012141EA014122F007047FF0F4
:1002200000070023F0E80256083C85EA010586EA4B
:10023000010685FA47F5A3FA87F586FA47F6A5FA87
:1002400087F68EB9EED1F0BC01F0FF0102F0070293
:1002500032B110F8013B013A83EA010313B1F8D13E
:100260000020704701387047002D06BF354603381F
:10027000073815F0010F07D1013015F4807F02BF58
:10028000013015F4C03F0130F0BC0138704700BFA9
:1002900081F0004102E000BF83F0004330B54FEA37
:1002A00041044FEA430594EA050F08BF90EA020FA4
:1002B0001FBF54EA000C55EA020C7FEA645C7FEA37
:1002C000655C00F0E2804FEA5454D4EB5555B8BF5A
:1002D0006D420CDD2C4480EA020281EA030382EACB
:1002E000000083EA010180EA020281EA0303362D5D
:1002F00088BF30BD11F0004F4FEA01314FF4801C30
:100300004CEA113102D0404261EB410113F0004F41
:100310004FEA03334CEA133302D0524263EB4303F8
:1003200094EA050F00F0A780A4F10104D5F1200E96
:100330000DDB02FA0EFC22FA05F2801841F10001F1
:1003400003FA0EF2801843FA05F359410EE0A5F1C5
:1003500020050EF1200E012A03FA0EFC28BF4CF0F6
:10036000020C43FA05F3C01851EBE37101F00045AC
:1003700007D54FF0000EDCF1000C7EEB00006EEBB9
:100380000101B1F5801F1BD3B1F5001F0CD3490843
:100390005FEA30004FEA3C0C04F101044FEA44529A
:1003A00012F5800F80F09A80BCF1004F08BF5FEA21
:1003B000500C50F1000041EB045141EA050130BD01
:1003C0005FEA4C0C404141EB0101013C28BFB1F513
:1003D000801FE9D291F0000F04BF01460020B1FA5E
:1003E00081F308BF2033A3F10B03B3F120020CDA31
:1003F0000C3208DD02F1140CC2F10C0201FA0CF00F
:1004000021FA02F10CE002F11402D8BFC2F1200C73
:1004100001FA02F120FA0CFCDCBF41EA0C01904029
:10042000E41AA2BF01EB0451294330BD6FEA040472
:100430001F3C1CDA0C340EDC04F11404C4F120025D
:1004400020FA04F001FA02F340EA030021FA04F36F
:1004500045EA030130BDC4F10C04C4F1200220FAC6
:1004600002F001FA04F340EA0300294630BD21FA04
:1004700004F0294630BD94F0000F83F4801306BFCA
:1004800081F480110134013D4EE77FEA645C18BFBE
:100490007FEA655C29D094EA050F08BF90EA020F55
:1004A00005D054EA000C04BF1946104630BD91EA4D
:1004B000030F1EBF0021002030BD5FEA545C05D150
:1004C0004000494128BF41F0004130BD14F580048F
:1004D0003CBF01F5801130BD01F0004545F0FE4103
:1004E00041F470014FF0000030BD7FEA645C1ABF38
:1004F000194610467FEA655C1CBF0B46024650EA6F
:10050000013406BF52EA033591EA030F41F400219A
:1005100030BD00BF90F0000F04BF0021704730B520
:100520004FF4806404F132044FF000054FF00001F5
:1005300050E700BF90F0000F04BF0021704730B5B6
:100540004FF4806404F1320410F0004548BF40428B
:100550004FF000013EE700BF42004FEAE2014FEAE0
:1005600031014FEA02701FBF12F07F4393F07F4FBB
:1005700081F06051704732F07F4208BF704793F0BE
:100580007F4F04BF41F40021704730B54FF46074D1
:1005900001F0004521F000411CE700BF50EA0102D4
:1005A00008BF704730B54FF000050AE050EA01027D
:1005B00008BF704730B511F0004502D5404261EBED
:1005C00041014FF4806404F132045FEA915C3FF42E
:1005D000D8AE4FF003025FEADC0C18BF03325FEACB
:1005E000DC0C18BF033202EBDC02C2F1200300FA7C
:1005F00003FC20FA02F001FA03FE40EA0E0021FAA1
:1006000002F11444BDE600BF70B54FF0FF0C4CF48E
:10061000E06C1CEA11541DBF1CEA135594EA0C0F40
:1006200095EA0C0F00F0DEF82C4481EA030621EA7B
:100630004C5123EA4C5350EA013518BF52EA0335B6
:1006400041F4801143F4801338D0A0FB02CE4FF068
:100650000005E1FB02E506F00042E0FB03E54FF098
:100660000006E1FB03569CF0000F18BF4EF0010E90
:10067000A4F1FF04B6F5007F64F5407404D25FEA8C
:100680004E0E6D4146EB060642EAC62141EA55513F
:100690004FEAC52040EA5E504FEACE2EB4F1FD0C81
:1006A00088BFBCF5E06F1ED8BEF1004F08BF5FEAFF
:1006B000500E50F1000041EB045170BD06F00046B1
:1006C00046EA010140EA020081EA0301B4EB5C045E
:1006D000C2BFD4EB0C0541EA045170BD41F4801156
:1006E0004FF0000E013C00F3AB8014F1360FDEBF7B
:1006F000002001F0004170BDC4F10004203C35DA57
:100700000C341BDC04F11404C4F1200500FA05F3D9
:1007100020FA04F001FA05F240EA020001F000427A
:1007200021F0004110EBD37021FA04F642EB0601F0
:100730005EEA430E08BF20EAD37070BDC4F10C041A
:10074000C4F1200500FA04F320FA05F001FA04F2DE
:1007500040EA020001F0004110EBD37041F10001CA
:100760005EEA430E08BF20EAD37070BDC4F12005D5
:1007700000FA05F24EEA020E20FA04F301FA05F23D
:1007800043EA020321FA04F001F0004121FA04F2E5
:1007900020EA020000EBD3705EEA430E08BF20EAB5
:1007A000D37070BD94F0000F0FD101F000464000EF
:1007B00041EB010111F4801F08BF013CF7D041EA71
:1007C000060195F0000F18BF704703F00046520075
:1007D00043EB030313F4801F08BF013DF7D043EA46
:1007E0000603704794EA0C0F0CEA135518BF95EAFC
:1007F0000C0F0CD050EA410618BF52EA4306D1D183
:1008000081EA030101F000414FF0000070BD50EAA1
:10081000410606BF1046194652EA430619D094EA2B
:100820000C0F02D150EA013613D195EA0C0F05D115
:1008300052EA03361CBF104619460AD181EA030169
:1008400001F0004141F0FE4141F470014FF0000021
:1008500070BD41F0FE4141F4780170BD70B54FF0BC
:10086000FF0C4CF4E06C1CEA11541DBF1CEA13553C
:1008700094EA0C0F95EA0C0F00F0A7F8A4EB05041E
:1008800081EA030E52EA03354FEA013100F0888015
:100890004FEA03334FF0805545EA131343EA1263DE
:1008A0004FEA022245EA111545EA10654FEA002693
:1008B0000EF000419D4208BF964244F1FD0404F54C
:1008C000407402D25B084FEA3202B61A65EB0305A8
:1008D0005B084FEA32024FF480104FF4002CB6EB65
:1008E000020E75EB030E22BFB61A754640EA0C00E5
:1008F0005B084FEA3202B6EB020E75EB030E22BF25
:10090000B61A754640EA5C005B084FEA3202B6EB65
:10091000020E75EB030E22BFB61A754640EA9C0024
:100920005B084FEA3202B6EB020E75EB030E22BFF4
:10093000B61A754640EADC0055EA060E18D04FEAB2
:10094000051545EA16754FEA06164FEAC30343EA52
:1009500052734FEAC2025FEA1C1CC0D111F4801F1F
:100960000BD141EA00014FF000004FF0004CB6E718
:1009700011F4801F04BF01430020B4F1FD0C88BFB7
:10098000BCF5E06F3FF6AFAEB5EB030C04BFB6EBC2
:10099000020C5FEA500C50F1000041EB045170BDB5
:1009A0000EF0004E4EEA113114EB5C04C2BFD4EBE2
:1009B0000C0541EA045170BD41F480114FF0000E66
:1009C000013C90E645EA060E8DE60CEA135594EAE2
:1009D0000C0F08BF95EA0C0F3FF43BAF94EA0C0FE5
:1009E0000AD150EA01347FF434AF95EA0C0F7FF45A
:1009F00025AF104619462CE795EA0C0F06D152EAAE
:100A000003353FF4FDAE1046194622E750EA410691
:100A100018BF52EA43067FF4C5AE50EA41047FF4A2
:100A20000DAF52EA43057FF4EBAE12E74FEA410205
:100A3000B2F1E04324BFB3F5001CDCF1FE5C0DD93C
:100A400001F0004C4FEAC0024CEA5070B2F1004F86
:100A500040EB830008BF20F00100704711F0804F89
:100A600021D113F13872BCBF01F00040704741F44E
:100A700080114FEA5252C2F11802C2F1200C10FA52
:100A80000CF320FA02F018BF40F001004FEAC12336
:100A90004FEAD32303FA0CFC40EA0C0023FA02F3DA
:100AA0004FEA4303CCE77FEA625307D150EA0133B0
:100AB0001EBF4FF0FE4040F44000704701F0004080
:100AC00040F0FE4040F40000704700BF7BB972B9AF
:100AD0000029BEBF00204FF0004106E008BF0028FB
:100AE0001CBF6FF000414FF0FF3000F0B5B9ADF121
:100AF000080C6DE904CE002909DB002B1ADB00F09D
:100B00004DF8DDF804E0DDE9022304B0704740420F
:100B100061EB4101002B1BDB00F040F8DDF804E045
:100B2000DDE9022304B0404261EB4101524263EB34
:100B300043037047524263EB430300F02FF8DDF8A4
:100B400004E0DDE9022304B0404261EB410170475B
:100B5000524263EB430300F021F8DDF804E0DDE9E5
:100B6000022304B0524263EB4303704753B94AB9BE
:100B7000002908BF00281CBF4FF0FF314FF0FF30A5
:100B800000F06AB9ADF1080C6DE904CE00F006F88A
:100B9000DDF804E0DDE9022304B070472DE9F047F9
:100BA000089D0C46002B4ED194468C458646B2FAE1
:100BB00082F262D94AB1C2F12003914020FA03F3D4
:100BC0000CFA02FC194300FA02FE4FEA1C471FFA16
:100BD0008CF6B1FBF7F44FEA1E4307FB141143EA0E
:100BE000014304FB06F199420AD91CEB030304F10B
:100BF000FF3080F01281994240F20F81023C634441
:100C0000591A1FFA8EF3B1FBF7F007FB101143EAF4
:100C1000014300FB06F69E420AD91CEB030300F1D8
:100C2000FF3180F0FC809E4240F2F980634402383C
:100C30009B1B40EA044000211DB1D3400022C5E9BE
:100C40000032BDE8F0878B4205D90DB1C5E900013E
:100C500000210846F5E7B3FA83F1002946D1A34203
:100C600002D39042C0F0F080861A64EB03030120A7
:100C7000002DE6D0C5E90063E3E7002A40F090804C
:100C8000A1EB0C044FEA1C481FFA8CF70121B4FBBE
:100C9000F8F64FEA1E4308FB164443EA044307FBF9
:100CA00006F0984208D91CEB030306F1FF3402D288
:100CB000984200F2CD8026461C1A1FFA8EF3B4FB30
:100CC000F8F008FB104443EA044300FB07F79F4297
:100CD00008D91CEB030300F1FF3402D29F4200F25B
:100CE000B0802046DB1B40EA0640A5E7C1F12006A4
:100CF0008B4022FA06F71F4320FA06FC04FA01F3A0
:100D000043EA0C03F44000FA01F8380C4FEA1349A7
:100D1000B4FBF0FE1FFA87FC00FB1E4449EA0444C2
:100D20000EFB0CF9A14502FA01F20AD93C190EF1A9
:100D3000FF3A80F08480A14540F28180AEF1020E3E
:100D40003C44A4EB09041FFA83F9B4FBF0F300FB65
:100D5000134449EA044403FB0CFCA44507D93C199D
:100D600003F1FF3067D2A44565D9023B3C4443EA16
:100D70000E40A0FB0293A4EB0C049C42CE469C4682
:100D800051D34ED055B1B8EB0E0364EB0C0404FA0A
:100D900006F6CB401E43CC40C5E90064002150E775
:100DA000C2F1200320FA03F10CFA02FC24FA03F347
:100DB00094400C434FEA1C4800FA02FE1FFA8CF7DD
:100DC000B3FBF8F008FB1031230C43EA014300FBAE
:100DD00007F1994208D91CEB030300F1FF362CD22E
:100DE00099422AD9023863445B1AA4B2B3FBF8F1E2
:100DF00008FB113344EA034401FB07F3A34208D97B
:100E00001CEB040401F1FF3613D2A34211D90239BD
:100E10006444E41A41EA004139E70446F0E6084632
:100E200006E7C845AED2B9EB020E63EB070C0138FA
:100E3000A8E73146EDE7034699E73046D4E7D646C2
:100E40007FE7634402384DE70646234608460FE72E
:100E5000023E634430E700BF704700BFDFF834D084
:100E6000002103E00C4B5B58435004310B480C4B02
:100E700042189A42F6D30B4A02E0002342F8043BA0
:100E8000094B9A42F9D304F0C7FB24F005FA00F0AD
:100E9000F9FF704700000320E86708080000002001
:100EA00064010020640100202C4D0120FEE7704702
:100EB00008B500F065FDBDE8084000F0E7BC00F0B3
:100EC00061BD704710B50421044622F0EEFF2046B4
:100ED00010BD000038B50C4B0C4C18800C4B822018
:100EE00019806368984740F6110398420AD1094D6A
:100EF00023682C60822098472B688220DB68984703
:100F0000002038BD0120FCE78A0100204C000020B1
:100F1000880100208C0100204FF4A071F020FFF721
:100F2000D9BF0000F7B5334D2B6804461B698220FA
:100F30009847208000284AD02B680DF106025B6993
:100F400001A982209847BDF8063040F674629342AA
:100F50003FD9ADF80620BDF80630D21A92B20A2A5F
:100F60003DD90B23B2FBF3F2234B1B889A4201D9E4
:100F7000013B9AB2BDF8043040F6B8318B4230D80C
:100F8000C3F571630E339BB20F21B3FBF1F31B4921
:100F900009888B4201D901398BB2194E194D30683D
:100FA0002F68834281B28CBF591AC91AB8B2BA42AB
:100FB0008CBF101A801A89B280B201440529C8BFBB
:100FC00033603368C8BF2A6063802B68A38003B096
:100FD000F0BDB32B9CBFB423ADF80630BBE70022B5
:100FE000C8E7C3F56D6308339BB20E2BCCD8002342
:100FF000D3E700BF8C010020880100208A01002077
:10100000840100208001002037B568460D46144653
:10101000FFF788FFBDF8000030B1BDF802302B604B
:10102000BDF804302360012003B030BD032821D86F
:10103000DFE800F0020B12190F4B1A68B2FA82F2C5
:10104000520904210D4805F025B90B4B5A68B2FA34
:1010500082F252090821F5E7074B9A68B2FA82F248
:1010600052091021EEE7044BDA68B2FA82F2520913
:101070002021E7E7704700BF9001002000100240E8
:10108000032821D8DFE800F0020B12190F4B1A6871
:10109000003A18BF012204210D4805F0FBB80B4BA4
:1010A0005A68003A18BF01220821F5E7074B9A68F1
:1010B000003A18BF01221021EEE7044BDA68003A2B
:1010C00018BF01222021E7E7704700BF90010020F0
:1010D0000010024003280DD8DFE800F00206080ADD
:1010E0000421054805F0DBB80821FAE71021F8E7EC
:1010F0002021F6E7704700BF0010024008B5032822
:1011000011D8DFE800F0020A0C0E0421074805F0B0
:10111000BBF8431E5842584108BD0821F6E710218C
:10112000F4E72021F2E70020F3E700BF00100240BF
:1011300070B5084D00240126E0B2FFF7DFFF18B1BB
:101140002B68012B18BF2E600134052C05F1040516
:10115000F2D170BD90010020012380F8781080F852
:101160007930704700207047034B4164003918BF45
:1011700001211970704700BFF34001200020704723
:10118000836B0BB10846184770474FF6FF707047E6
:10119000406803689B6918477047704770470000B4
:1011A00010B5044600F0FCFC23680349D3F88C30EA
:1011B0002046BDE810401847000000D008B503687D
:1011C0000446D3F880309847236820469B6F9847A1
:1011D00000F0ECF8236820461B6F9847292001F0A7
:1011E000F5F800F0E3F8236820461B6F9847F8E70E
:1011F00010B504460AF08AFE23682046D3F8AC30C6
:10120000BDE81040184700F0ADBC00F0B1BC00F0E4
:10121000E5BC00F083BC00F0F5BC00F0FDBC00F0C4
:1012200087BC0AF0DEB810B57C21044622F03DFEF2
:10123000204610BD10B590F8341090F878400C4B53
:101240008C421A7809D03AB90A4A0B49148808889E
:1012500010800C8001221A7010BD002AFCD0054AB3
:1012600005491488088810800C800022F3E700BF2D
:10127000EC400120E8400120EA40012070B50D4615
:10128000194635B9094B0A4A0A4840F2D22123F0DF
:1012900053FDC0E90F52084B003A18BF01221A70E3
:1012A0000368BDE87040D3F88C301847E85D020849
:1012B000205E02086E5E0208F240012008B5094B6C
:1012C0001B888B4203D8084B1B88934205D9074BD8
:1012D000074A08489E2123F02FFD074B1980074B32
:1012E0001A8008BDE8400120EA400120B35E0208F0
:1012F000165F02086E5E0208EE400120F0400120F9
:10130000034690F87A0018B1586803681B681847BC
:1013100070470000012108B50022084607F0DDF8FB
:101320000A4B186028B90A4B0A4A28210A4823F0B8
:1013300003FD00220421012007F06EF9074B18601D
:1013400018B9074B034A2C21F0E708BDA40100207F
:10135000346002087D600208AC600208A001002031
:10136000F6600208024B4FF0FF31186807F0FFB833
:10137000A4010020014B186807F025B9A401002042
:10138000024B0021186807F0F2B800BFA40100204A
:10139000FFF7F0BF03480449006800231A4607F02E
:1013A00076B900BFA00100200400002013B5084C4E
:1013B00000231A4601A9206807F09AF920684FF027
:1013C000FF33002201A907F093F902B010BD00BF5E
:1013D000A001002003685B6C184701207047036878
:1013E0009B6A184740F2EF3070470000054B0360DE
:1013F000054B4FF08062C3F88820BFF34F8FBFF3D7
:101400006F8F70479062020800E100E010B504465B
:101410004FF45A61FFF7EAFF204622F046FD2046CE
:1014200010BD000082B0002301930D4B1A6B42F4F3
:1014300000021A631A6B02F400020192019A1A69FF
:1014400042F400021A611A6922F400021A61054B83
:10145000054A1A61054B4FF080629A6002B07047EE
:101460000038024064310020BD16000800E100E0B1
:1014700008B50A2809D8DFE800F006100E080808A9
:10148000081010101000022008BD054B054A064840
:10149000862123F051FC0020F6E70120F4E700BF8D
:1014A00038610208536102089E61020838B50C4693
:1014B000887FFFF7DDFFA58AE28A164B2169586312
:1014C00042EA05425A64628BD963521B1A6425684A
:1014D000082D0ED19A611A615862207F0E4A42EAA5
:1014E0000062DA61E2681A620C4A5961D9601A60D6
:1014F00038BD0022D8611A61E1680A0A480902F47D
:10150000784200F4FC600243C1F3C4010A439A63C9
:10151000034AECE700B002400900010001020200AA
:101520000102030008B50B280BD8DFE800F0061213
:10153000100A0A0A0A0808080808022008BD05203F
:10154000FCE7054B054A0648652123F0F5FB002022
:10155000F4E70120F2E700BF38610208E661020803
:101560009E6102082DE9F04191F81D800C4640462D
:10157000FFF7D8FFA77F05463846FFF7D3FF06469B
:101580003846FFF775FFA18A628B444B521A1A64E2
:101590009A61228B521A1A61E28A586342EA014226
:1015A0005A6421696268D963DA602068802828D08B
:1015B000227F0FD8202867D0402865D004281AD071
:1015C000364B45EA026545F40035B845DD6161D02A
:1015D000334A44E0B0F5807F04D0B0F5007FEFD10E
:1015E000304800E0304840EA0262DA61E2681A629C
:1015F0005E62596132E045EA026242F40032DA6129
:10160000F6E7A068021DDA62227F45EA026545F42A
:101610000035DD615E625961017841B1012921D057
:10162000224B234A23484FF4887123F085FBDA6963
:10163000418822F47F42013922F0100242EA01225D
:10164000DA610121154BDA6942F02002DA61DA69C8
:101650009206FCD410229A600029B9D0164A1A606A
:10166000BDE8F081B2F1FF01DA69408822F47F42DF
:1016700000F1FF3022F0100242EA002242F0100294
:1016800018BF0121DA61DDE745EA0262034B42F44B
:101690000032B4E740F20122E1E700BF00B00240AF
:1016A00001020100090002000A0002003062020883
:1016B0004A6202089E61020801020200024B1B6896
:1016C000586803685B691847F440012070B5044608
:1016D00025460A4B0C30002660602672667245F87B
:1016E000203B602229460AF069FD04F55A63EE604A
:1016F00024359D42FBD1204670BD00BF9062020898
:10170000034B1A68D207FCD423229A60704700BFAB
:1017100000B0024030B50F4C2568ED07FCD42325FE
:101720000904A56041F001010225FF2B6563616496
:10173000E0630AD00849656241EA0363E361074B4D
:1017400022626061E060236030BDE561039BA363BA
:10175000034BF8E700B0024009000100010002005D
:1017600001000300012070474020704700EB81100A
:101770000830704700EB8110083070470120704737
:1017800041F67440704741F6744303FB0100083092
:10179000704741F6744303FB010008307047012095
:1017A00070471020704700EB01100830704700EBC5
:1017B000011008307047084601F056BE10B5034BC3
:1017C0000360044608F0E9FE204610BD48630208A5
:1017D00010B50446FFF7F2FF2046482122F065FBD2
:1017E000204610BD10B5034B0360044608F0D5FE3B
:1017F000204610BD1463020810B50446FFF7F2FF3F
:10180000204641F67C4122F050FB204610BD0000EE
:1018100010B5034B0360044608F0BFFE204610BD20
:10182000E062020810B50446FFF7F2FF20461821D7
:1018300022F03BFB204610BD10B5094B0360044667
:1018400000F5E5500830FFF7B9FF04F12C00FFF771
:10185000C9FF04F11400FFF7DBFF204610BD00BFF5
:101860007C63020808B50248FFF7E6FF08BD00BF29
:101870007410002010B50446FFF7DEFF204641F645
:10188000506122F012FB204610BD00002DE9F3410B
:1018900001F0DAF9054601F0DBF9002401462346A0
:1018A00028462246009414F065F9274B274A1A600F
:1018B000204603F0BDFA264D264B274A27489A605A
:1018C00014F0C0F82B68BFF35B8FDB0735D42846D4
:1018D00022F0EDFA88B3224C224B234F236004F10F
:1018E000140000F5E75604F12C086060C4F8088085
:1018F000E760266108F052FE1C4B6361404608F029
:101900004DFE1B4BE362384608F048FE04F5805359
:1019100003F54F60174AC3F8A82C03F04DFB22468D
:10192000311F304603F002FB304601F09DFD1248A6
:1019300023F020FA284622F0C6FA104802B0BDE88B
:10194000F041FFF72DBC00BF5841012024020020C8
:10195000701000204402002028020020080000200F
:10196000741000207C6302081C2D0020E062020835
:10197000146302084863020865180008A8010020E3
:10198000704700000148FFF719BC00BFA801002004
:1019900070B5244E244C254D254B23603046FFF76F
:1019A00095FE284618F0B2FB224812F0BFF8224BF1
:1019B0002248DC6000224FF48071C3E912122049F2
:1019C0001A86C3E91A121F4999671F4983F85820DC
:1019D0000B60F02101801D485A6601801C4883F885
:1019E00070204FF4A071C3E90422C3E90622C3E9C1
:1019F0000822C3E90A22C3E90E22C3E91022C3E97F
:101A00001422C3E917225A67C3E90165018011480E
:101A1000018011490A70012283F834200F4A1A60AC
:101A200070BD00BFCC0200206C10002044020020DA
:101A3000D85D020828020020A8010020E84001200B
:101A40000100000100000101F4400120EE400120EE
:101A5000EA400120F0400120EC400120645F0208D0
:101A60000148FFF7C3BC00BFCC0200200020704734
:101A700081807047C1807047018170474181704704
:101A80007047704770477047704710B4C488036848
:101A9000121B84885B6D091B12B25DF8044B09B2FE
:101AA00018474FF6FF7383814FF0FF3303621368CB
:101AB000C36110607047002070478B8883800120CD
:101AC0007047704780F82610704790F826007047DE
:101AD00010B50022B1F90840B1F90A100280428025
:101AE0008480C18010BD0022028042808280C2803A
:101AF00070470177704780ED080A704780F824101E
:101B0000704780F825107047012070479830704763
:101B10008C3070478430704770470000034B902230
:101B200083F85A2383F85823704700BF00E100E090
:101B3000094A0A49D3680A48C3F30A03013B9BB226
:101B40000B801169C1F30A01013901801364536BE1
:101B500043F001035363704700680140C62E002024
:101B6000C42E0020014BD3F8AC0070470068014040
:101B7000024B0122C3F8AC105A6270470068014062
:101B80007047704710B52C21044622F08EF920468C
:101B900010BD10B5BC21044622F087F9204610BDC7
:101BA00070B5044609F073FC23685D6E10F048FEC2
:101BB00001462046A8472368054AD3F888502046A6
:101BC000AC460023BDE87040A2F51631604700BF67
:101BD00000B004D009F042BC09F04CBC09F007BCCD
:101BE00009F069BD90F8252012B103685B691847B8
:101BF000704790F825201AB190F8242002B118609F
:101C000070470000034B4FF080629A604FF0807283
:101C10009A60704700E100E0084B4FF08062C3F823
:101C20008820BFF34F8FBFF36F8F4FF08072C3F8E0
:101C30008820BFF34F8FBFF36F8F704700E100E044
:101C400070B50023124E8380124B0360336893F803
:101C5000582005460AB1D86C00B998680368DB6A59
:101C600098473368B0FA80F4D86C640930B10368DF
:101C7000DB6A9847002808BF44F001042CB9064BE2
:101C8000064A07482C2123F057F8284670BD00BFAC
:101C9000F44001208C64020888630208E6630208AD
:101CA0001F64020870B5244E3568BFF35B8F15F0D2
:101CB00001053FD1304622F0FAF800283AD01F4CF7
:101CC0001F4B256104F13400C4E90035C4E9025515
:101CD000E584A562A58512F088F904F158000BF09F
:101CE00069FE184BA3652046174B40F8843BFFF76D
:101CF000A7FF164BC4F884302433C4F88C30642317
:101D0000C4E928350023C4F8AC30C4F8B030C4F8B6
:101D1000B430C4F8B8300E480E4BC4F89050C4F834
:101D20009C50C4F8A850C4F8983023F023F83046EB
:101D300022F0C9F8014870BDC82E0020CC2E00202A
:101D4000707A0208AC64020824650208247A02084A
:101D5000191B0008047A020810B5144C236823B339
:101D6000134B144A1B6C11888B4213D1124B1988E8
:101D700005F0A2F8226892F86A30013382F86A30DE
:101D8000FFF708FB20680AF0C1F8BDE8104000200A
:101D9000FFF74CB905F090F8206803681B6A984774
:101DA000BDE810400020FFF76BB910BDF4400120E2
:101DB00000680140C62E0020C42E002007B5064B47
:101DC000ADF806001B68054801220DF1060105F07B
:101DD00013FE03B05DF804FB0C000020103000205F
:101DE00008B5642006F06DFBFBE7000030B595B048
:101DF000102200210AA823F0A6F90021142203A82A
:101E000023F0A1F900241D4B01941A6C42F080527A
:101E10001A641B6C03F080530193019B184B0294CE
:101E20001A6842F440421A601B6803F4404302936C
:101E3000029B01224FF48033CDE9082302254FF4A1
:101E40008003B422CDE90E5308A80423CDE9103253
:101E5000CDE9125305F088F805F04CF80F23CDE9D1
:101E600003354FF4A0514FF48053CDE9061303A876
:101E70000521059405F054FA15B030BD0038024034
:101E8000007000402DE980489DB00024C54D03F04E
:101E9000D1FBFFF7ABFF142200210FA823F053F969
:101EA00002942B6BC04843F010032B632B6B03F0A1
:101EB00010030293029B03942B6B43F020032B63CC
:101EC0002B6B03F020030393039B04942B6B43F0D1
:101ED00080032B632B6B03F080030493049B059416
:101EE0002B6B43F004032B632B6B03F0040305936C
:101EF000059B06942B6B43F001032B632B6B03F0C4
:101F000001030693069B07942B6B43F002032B639C
:101F10002B6B03F002030793079B08942B6B43F092
:101F200040032B632B6B03F040030893089B099439
:101F30002B6B43F008032B632B6B03F0080309930F
:101F400022463C21099B04F0A5F998482246042129
:101F500004F0A0F9964822464FF4405104F09AF953
:101F60004FF03C0A224693484FF4C041012604F04A
:101F700091F94FF003080DEB0A018B48CDF848802A
:101F800002274FF00409CDE90FA6119404F098F848
:101F90000DEB0A0185481194CDE90F96129704F0D4
:101FA0008FF84FF440530DEB0A018148CDE90F360D
:101FB000CDE9114704F084F84FF4C0430DEB0A015A
:101FC0007C48CDE90F36CDE9114404F079F801944D
:101FD0002B6B43F480032B632B6B774D03F480034F
:101FE0000521224650460193019B03F0CBFD50464C
:101FF00003F0FAFD7148724B036003F003FE714A6F
:10200000714B2C62C5E9002328464FF48043C5E993
:102010000434C5E90244C5E9064404F049FB102133
:10202000284604F08DFD2146284604F0A8FD6748A7
:10203000674984624FF48273C0E900134FF400755E
:102040001823C0E906530A23624DC362C0E9024463
:10205000C0E90444C0E9084405F072FC5E4B0F97E8
:10206000C5E900364FF0100A4023C5E904A34FF438
:10207000C073C5E906344FF40063C5E908344FF472
:102080000053AB620FA907232846CDE91039CDE9EB
:1020900012384FF0080BC5E90249CDE9147705F075
:1020A00033FB4FF6FF720BA92846CDE90CB60A9414
:1020B0000B960E9405F048FB304603F0E7FA4FF616
:1020C000FF720BA92846CDE90B7BCDE90D6405F025
:1020D0003BFB4FF6FF720BA92846CDE90B8BCDE9F0
:1020E0000D9405F031FB4FF40C730A930A9B0E9389
:1020F0004FF6FF720BA92846CDE90B9B0D9605F014
:1021000023FB40F26A51284605F03CFB342221466D
:102110000FA823F018F8314D314B2C61C5E900347C
:102120000923C5E905361D2340F20D1CC5E9073812
:1021300040F24313C5E909C340F2171E40F24713AA
:102140002846C5E90BE3C5E90244AC8685F836406C
:1021500004F0BAFDFF21F022CDE914144FF4806899
:1021600005214FF4A073CDE91024CDE91681CDE906
:1021700018420FA922462846CDE91237194D1A9365
:102180000F94ADF86C408DF86E4004F068FE164B6D
:102190002B601B68DFF8589098472B68134DDB685D
:1021A000984727E000380240001002400008024033
:1021B000000C02400018024010310020A431002021
:1021C00000300240005C0040A0860100103000207A
:1021D00000500140942F0020400100A068300020F2
:1021E00000680140882F0020140000206431002086
:1021F000002001402E4B2846C5E90034C5E9027491
:10220000C5E90A47C5E90C4403F05EFE314628469D
:1022100003F012FF274D524621460FA822F093FFEC
:102220004FF48033C5E900932846234BAB62AC6082
:102230002C612E7685F82040EC62EC60EE6185F82A
:1022400030606E6103F036FA0B230FA92846CDE902
:102250000F361A4D119403F0E5FB194BAC60C5E93C
:10226000003728464FF6FF73EB60CDE90F44AC61B1
:1022700005F09EFF0FA92846CDE90F4405F0C4FFE5
:10228000FEF716FEFEF713FE06F0A8F80D4A0E48FC
:10229000214606F0CFF80D4B0D4A186021460D4837
:1022A00006F0C8F80C4B186006F0AAF8FEE700BF6D
:1022B00000B002400C3200200100000FC82F0020A7
:1022C00000140040A4650208E11D0008902F0020C2
:1022D00080650208BF0E00088C2F002070477047F1
:1022E0007FB5094B8DF817201B6802930DF117027B
:1022F0000123009201930A460146044804F080FA43
:1023000007B05DF804FB00BF100000201031002072
:102310007FB500238DF81730084B1B6802930A46DF
:1023200001230DF11701009101930146044804F0C7
:10233000F7FA9DF8170007B05DF804FB10000020C5
:10234000103100201FB5084C24680092CDE90134FB
:102350000A4601230146054804F0E2FA003818BF96
:10236000012004B010BD00BF10000020103100207B
:1023700003F08CB910B5064C00222046042103F06E
:1023800089FF20460122BDE81040042103F082BFEE
:102390000008024038B50B4D044601220A484FF4AC
:1023A000005103F077FF00220421284603F072FF5A
:1023B0002046FFF703FD28460122BDE838400421EE
:1023C00003F068BF00080240000C024038B50B4D16
:1023D000044600220A484FF4005103F05BFF00223C
:1023E0000421284603F056FF2046FFF7E7FC284665
:1023F0000122BDE83840042103F04CBF0008024030
:10240000000C0240F7B5144E144F05460C463046FA
:102410000022042103F03EFF00224FF40051384611
:1024200003F038FF2846FFF7C9FC0D4B0D481B6829
:10243000224601A905F08BFC384601224FF40051D9
:10244000019C03F027FF30460122042103F022FF04
:10245000204603B0F0BD00BF00080240000C02405F
:102460000C0000201030002003F010B90268034B6C
:102470009A4201D103F0F8B8704700BF0010004045
:102480007047000082B00E4B00220092596C41F45C
:1024900080415964596C01F4804100910099019286
:1024A000196C41F0805119641B6C03F08053019347
:1024B000019B0F216FF0010002B003F063BB00BF6E
:1024C0000038024070B5064688B01422002103A8E7
:1024D00022F039FE3268244B9A4242D103F58C3304
:1024E000002501955A6C2148214C42F480725A64AF
:1024F0005A6C02F480720192019A02951A6B42F0B2
:1025000004021A631B6B03F004030293029B022272
:10251000032303A9CDE9032303F0D2FD154B4FF4A8
:102520008061C4E900354FF400634FF40050C4E902
:1025300004134FF48073C4E906032046C4E902552E
:10254000C4E9085503F084FB08B1FFF799FFB463B1
:10255000122000220521A66303F014FB122003F0D1
:1025600043FB08B070BD00BF0020014000080240DE
:10257000AC310020706402400268094B9A4282B07C
:102580000BD100230193074B1A6B42F480521A635C
:102590001B6B03F480530193019B02B0704700BF93
:1025A000003002400038024007B50F4B02689A42E3
:1025B00016D10022A3F5F0430192196B41F40001FA
:1025C00019631B6B03F40003019305215A20019B3F
:1025D00003F0D8FA5A2003B05DF804EB03F004BB13
:1025E00003B05DF804FB00BF00B002402DE9F043EA
:1025F000044689B01422002103A822F0A4FD226819
:10260000244B9A4243D1244C244800250095236B47
:1026100043F004032363236B03F004030093009B44
:102620000195236B43F001032363236B03F0010344
:102630000193019B4FF012094FF400734FF0010812
:102640000327042603A9CDE90339CDE905870796B9
:1026500003F036FD4FF480731148079603A9CDE9C6
:102660000339CDE9058703F02BFD0295236C43F474
:1026700000032364236C03F400030293029B236A88
:1026800043F400032362236A23F40003236209B0A6
:10269000BDE8F083005C00400038024000080240C2
:1026A00000000240F0B599B004461422002107A8AA
:1026B00022F049FD30220DEB0200002122F043FD03
:1026C00022685E4B9A4240F0B78008230C933C236B
:1026D0001093052312930CA84FF48033159304F044
:1026E000E7FE08B1FFF7CCFE554B56480024009496
:1026F0005A6C42F080625A645A6C02F08062009216
:10270000009A01941A6B42F020021A631A6B02F0CD
:1027100020020192019A02941A6B42F001021A639C
:102720001A6B02F001020292029A03941A6B42F0B1
:1027300002021A631A6B02F002020392039A0494D3
:102740001A6B42F040021A631A6B02F040020492C4
:10275000049A05941A6B42F004021A631A6B02F091
:1027600004020592059A06941A6B42F008021A6355
:102770001B6B03F00803069302250E26069B0B969F
:102780004FF4806307A9CDE90735CDE9094503F08A
:1027900097FC41F658032C480B9607A9CDE907355D
:1027A0000927CDE9094503F08BFC032327480B9744
:1027B00007A9CDE90735CDE9094503F081FC4FF4C0
:1027C000706322480B9607A9CDE90735CDE9094585
:1027D00003F076FC4FF40C631D480B9607A9CDE976
:1027E0000735CDE9094503F06BFCC02319480B966A
:1027F00007A9CDE90735CDE9094503F061FC0823B8
:1028000015480B9607A9CDE90735CDE9094503F031
:1028100057FC4FF4A0530E480B9707A9CDE9073595
:10282000CDE9094503F04CFC58202246052103F070
:10283000A9F9582003F0D8F919B0F0BD006801409B
:102840000038024000140240000002400004024030
:102850000018024000080240000C024010B5044677
:1028600088B01422002103A822F06DFC2268144BCA
:102870009A4223D103F56843002101915A6C114813
:1028800042F480125A645A6C02F480120192019A46
:1028900002911A6B42F020021A631B6B03F02003B3
:1028A0000293029B4FF4607202230321CDE90323BC
:1028B0000523CDE9061303A903F002FC08B010BDFF
:1028C000005001400014024007B50F4B02689A42C5
:1028D00016D1002203F509330192196C41F0200151
:1028E00019641B6C03F02003019305213720019B21
:1028F00003F048F9372003B05DF804EB03F074B936
:1029000003B05DF804FB00BF001400402DE9F04166
:1029100086B0002303932B4B1C68002C4FD14FF043
:102920000108C3F80080284B00949A6B274842EABC
:1029300008029A639B6B03EA0803009302270326AD
:102940000C25009B01A94FF63F03CDE90137CDE9E6
:10295000046503F0B5FB1E48059501A9CDE9018783
:10296000CDE9034603F0ACFB48F233131948059553
:1029700001A9CDE90137CDE9034603F0A1FB4FF6EC
:1029800083731548059501A9CDE90137CDE90346C3
:1029900003F096FB4CF203731048059501A9CDE9AD
:1029A0000137CDE9034603F08BFB60230C48059506
:1029B00001A9CDE90137CDE9034603F081FB06B05B
:1029C000BDE8F0815432002000380240001402407B
:1029D000000802400018024000100240000C0240B3
:1029E0000004024070B588B000230293204B1A6C9B
:1029F00042F010021A641B6C03F0100302930546A8
:102A000001A903A8029B04F035FD069B4BBB04F013
:102A100021FD184E184B336040F2E733F360174B3B
:102A2000B0FBF3F3013B7360304600233361B360C6
:102A3000B36105F0BDFB044680B9304605F062FA8B
:102A4000044658B9362003F0CFF80F2D0DD8224692
:102A50002946362003F096F8094B1D60204608B041
:102A600070BD04F0F7FC4000D3E70124F6E700BF97
:102A700000380240583200200010004040420F0051
:102A80007C0000207047FEE7FEE7FEE7FEE77047A8
:102A9000014802F039BF00BF0C320020014805F0A8
:102AA00087BA00BF5832002010B51F4C1F4823685A
:102AB0004FF480410133236003F0F1FB2368632B63
:102AC00023DC1B4802F01AFF07EE900AF8EE677A43
:102AD00017EE900AFDF740FD0FA3D3E90023FDF7A1
:102AE00093FD0FA3D3E90023FDF7B8FEFDF79EFF8A
:102AF000104B1860104805F05BFA0F4805F0CCF950
:102B0000BDE810400A4802F07BBE0B4805F050FAC1
:102B1000F6E700BFAFF300806666666666660A4049
:102B20000000000000FEAF40843300200018024087
:102B30000C32002088330020C82F0020014803F009
:102B400005B900BFAC310020014804F02BB900BF2B
:102B500068300020014803F0E5B900BF643100206F
:102B60000120704708B522F091FB162303604FF057
:102B7000FF3008BD08B522F089FB16230360FEE78D
:102B800070B50D4614460E46731B9C4201DC204670
:102B900070BDAFF3008006F8010BF5E770B50D4688
:102BA00014460E46731B9C4201DC204670BD16F88D
:102BB000010BAFF30080F5E74FF0FF3070474FF4A3
:102BC00000534B6000207047012070470020704781
:102BD0000A4A116808B5034609B909491160106825
:102BE000694603448B4206D922F050FB0C23036054
:102BF0004FF0FF3008BD1360FCE700BFA03200209B
:102C0000304D0120704710B50421044621F04DF9E4
:102C1000204610BD08B5032913D8DFE801F00206ED
:102C20000A0E02F051F9006808BD02F04DF9406843
:102C3000FAE702F049F98068F6E702F045F9C06862
:102C4000F2E70020F0E7000000487047DC6502086A
:102C50000720704713B5002451B1036801948DF823
:102C6000034001AA9C680DF10303A04702B010BD08
:102C70000846FBE7C0897047008A7047C0887047E4
:102C800080887047807A00F07F007047807AC009A2
:102C900070470020704700009FED010A704700BF99
:102CA00000000000704710B50821044621F0FDF82F
:102CB000204610BD7047704700F598730868496852
:102CC00003C370477047704741607047704700000A
:102CD000064BC0F84C310023C0F8503100F5A27308
:102CE000C0F84801C0F84031704700BF412F0008CC
:102CF000012303727047704770477047704710B4E4
:102D0000C26841685410034601EB6200D20748BF15
:102D10000A599B685DF8044B48BFD35818470346CF
:102D2000406830B19A681AB9D86800F0010070475D
:102D30000120704710B50C21044621F0B6F820465A
:102D400010BD10B51021044621F0AFF8204610BD8B
:102D500010B54FF4AE71044621F0A7F8204610BD1F
:102D600010B54021044621F0A0F8204610BD10B552
:102D70004021044621F099F8204610BD10B50FF00F
:102D80005FFD0368BDE81040DB6B1847054B1B78FF
:102D900001462BB1406818B103680C315B6E1847CF
:102DA000704700BFF3400120054B1B7801462BB153
:102DB000406818B103680C315B6E1847704700BF5C
:102DC000F3400120037A70B50546BBB9406803683B
:102DD000DB69984704463CB96868036805F10C0153
:102DE0001B6EBDE870401847E1886B8FC91A2368D5
:102DF00020465B6B09B29847A469ECE770BD037A83
:102E000070B50546BBB940680368DB69984704465E
:102E10003CB96868036805F10C011B6EBDE87040A1
:102E20001847E1886B8FC91A236820465B6B09B28B
:102E30009847A469ECE770BD10B50446D0F840018E
:102E400058B10368DB68984738B1D4F8400103688B
:102E50009B6898470023C4F8403110BD70B5044604
:102E600090F8390094F838300130C0B2984284F8B4
:102E7000390005D901232372002384F8393070BD4D
:102E8000B4F93A20002111F047FEC30706D5002807
:102E90004FF6FF73C8BF0123184400B2638AC01AFB
:102EA000A08760680368DB69984705462DB96068AC
:102EB0000368BDE870405B691847E988A38F19442F
:102EC0002B6828465B6B09B29847AD69EEE770B591
:102ED000044690F8390094F838300130C0B2984276
:102EE00084F8390005D901232372002384F839308E
:102EF00070BDB4F93A20002111F00EFEC30706D5CB
:102F000000284FF6FF73C8BF0123184400B2638A3C
:102F1000C01AA08760680368DB69984705462DB929
:102F200060680368BDE870405B691847E988A38F53
:102F300019442B6828465B6B09B29847AD69EEE7E8
:102F40002DE9F14FD0E9556A0746B06803681B6A5E
:102F50009847B0F5886F05D2444B454AA3214548B0
:102F600021F0EAFE706803681B6A98470F2803D8AF
:102F7000414B3F4AA421F2E7F06803681B6A984777
:102F80000B2803D83D4B3A4AA521E8E70FF058FC3F
:102F9000DFF8F09004300FF091FCD9F8000010B188
:102FA0000368DB689847D9F8000010B103681B6814
:102FB0009847DFF8D480D8F8000010B103685B6947
:102FC0009847D7F83C0110B103685B689847D8F878
:102FD000000010B103681B689847D7F83C0110B196
:102FE00003689B689847F068036800215B6A98470C
:102FF0004FF0000B224BC0F804B0044680F808B034
:103000000360B068036859465B6A9847054601F05B
:10301000C7FF7068036859465B6A984729460646A9
:1030200001F09CFF331DC7F83C61C9F80040C8F8A7
:103030000050CAF800302B68C6F808A02846DB68A4
:10304000EE639847336830461B6898472146284608
:1030500011F01EFD236820461B69984723685B69B1
:10306000204601B0BDE8F04F184700BF786602085F
:1030700006670208D267020819680208BC680208DD
:10308000946B02083C410120384101202DE9F041B8
:103090001D460368BDF918701B6B04461646984719
:1030A0002368314620465B6B9847236829462046B3
:1030B0009B6B9847236839462046DB6BBDE8F0419F
:1030C000184700002DE9F74FD0E9556A0746B06868
:1030D00003681B6A9847B0F5886F05D2534B544A72
:1030E000A321544821F028FE706803681B6A9847A2
:1030F0000F2803D8504B4E4AA421F2E7F06803682A
:103100001B6A98473F2803D84C4B494AA521E8E75A
:103110000FF096FBDFF8349104300FF0CFFBD9F8B5
:10312000000010B10368DB689847D9F8000010B1BF
:1031300003681B689847DFF81881D8F8000010B1C1
:1031400003685B699847D7F83C0110B103685B6876
:103150009847D8F8000010B103681B689847D7F863
:103160003C0110B103689B689847F0680368002130
:103170005B6A984705460022314B4260027245F86F
:103180000C3B044628460BF0BBFE142323872D4B33
:103190001B780022A287002B35D101232372B0684F
:1031A000036800215B6A9847054601F0F9FE7068E4
:1031B000036800215B6A98472946064601F0CEFE67
:1031C000331DC7F83C61C9F80040C8F80050CAF880
:1031D00000302B68C6F808A02846DB68EE639847E5
:1031E000336830461B6898472146284611F050FC4A
:1031F000236820461B69984723685B69204603B013
:10320000BDE8F04F1847DFF84CB0BBF90030009331
:103210000D4B1146B3F900302846FFF737FF28461B
:103220000BF0EAFDBBF800306387B8E77866020868
:103230005F690208D267020819680208BC680208C0
:10324000DC6B0208F3400120E84001203C410120F2
:1032500038410120EA4001202DE9F74FD0E9556AB5
:103260000746B06803681B6A984741F67343984263
:1032700005D8544B544AA321544821F05DFD706891
:1032800003681B6A98470F2803D8514B4E4AA42164
:10329000F2E7F06803681B6A98473F2803D84D4B54
:1032A000494AA521E8E70FF0CBFADFF8389104305E
:1032B0000FF004FBD9F8000010B10368DB689847F1
:1032C000D9F8000010B103681B689847DFF818812F
:1032D000D8F8000010B103685B699847D7F83C0143
:1032E00010B103685B689847D8F8000010B1036814
:1032F0001B689847D7F83C0110B103689B68984752
:10330000F068036800215B6A984705460022324B4B
:103310004260027245F80C3B044628460BF0F0FD73
:10332000142323872D4B1B780022A287002B35D135
:1033300001232372B068036800215B6A9847054641
:1033400001F0B4FE7068036800215B6A9847294663
:10335000064601F043FE331DC7F83C61C9F8004042
:10336000C8F80050CAF800302B68C6F808A02846F4
:10337000DB68EE639847336830461B689847214600
:10338000284611F085FB236820461B69984723686F
:103390005B69204603B0BDE8F04F1847DFF84CB03A
:1033A000BBF9003000930E4B1146B3F900302846AC
:1033B000FFF76CFE28460BF01FFDBBF800305B42A8
:1033C0006387B7E7786602083F6A0208D267020897
:1033D00019680208BC680208B86B0208F3400120B3
:1033E000E84001203C41012038410120EA40012011
:1033F000044B1B6893F858200AB1D86C00B9986840
:10340000704700BFF4400120F8B5044617460E4649
:103410000FF022FB104B1C60104B2360104B00255B
:10342000C4E951350F4BC4E9535518680368294660
:103430009B68C4E94F55C4E955769847284601F082
:10344000F7FCFFF7D5FF18F092FCFFF7D1FF18F05B
:1034500009FD2046F8BD00BF48410120406B02082D
:10346000286B0208F4400120064BC0F84C310023C1
:10347000C0F8503100F5A273C0F84801C0F84031DF
:10348000704700BF412F0008064BC0F84C310023A5
:10349000C0F8503100F5A273C0F84801C0F84031BF
:1034A000704700BFC5300008064BC0F84C31002300
:1034B000C0F8503100F5A273C0F84801C0F840319F
:1034C000704700BF59320008406A7047806A7047F1
:1034D00070478B88C0690A68DB0A50F823001044E3
:1034E000704710B50446BAB1107B68B1537BD27AED
:1034F0001B0203F4E0631A43236A03EB82031A8876
:103500008A4202D193F9020010BD05D8013880B279
:1035100004330028F3D1F7E70020F5E710B52C219C
:10352000044620F0C2FC204610BD000030B58BB030
:103530000446BDF860500895BDF85C5007959DF8AD
:10354000505006959DF84C5005959DF848500495AF
:103550009DF8445003959DF8405002959DF83C50CD
:103560000195BDF83850009510F0FCFD064B236026
:10357000159BE361169B2362199B63621A9BA362EE
:1035800020460BB030BD00BF006C0208806A704757
:103590007047704770477047704770477047704773
:1035A0007047704790F82C304BB100F16C021268F4
:1035B000C2653BB100F174031B680366704700F1FC
:1035C0006802F4E700F17003F6E708B590F82C30D4
:1035D0003BB100F1C4031B68C0F8A830FFF7E2FF5D
:1035E00008BD00F1C003F6E77047704730B4C26809
:1035F00044685510034604EB6200D20748BF625985
:103600009B6830BC48BFD35818470346406830B168
:103610009A681AB9D86800F0010070470120704715
:1036200090F82D3080F8AE3080F85A30704790F81E
:103630002D3080F85A30704710B53421044620F000
:1036400034FC204610BD10B57821044620F02DFC36
:10365000204610BD10B5C821044620F026FC2046A7
:1036600010BD10B51021044620F01FFC204610BDEF
:1036700010B50446006B50B10368DB68984730B161
:10368000206B036821469B68BDE81040184710BDB9
:103690000B7970B590F82C6004460D460BB916B145
:1036A00070BD002EFCD0B3FA83F35B0984F82C3094
:1036B00023682046D3F88C309847236820465B69FE
:1036C0009847002EECD02B79012BE9D123682046B6
:1036D000D3F88830BDE87040184700F5DC708842A8
:1036E00008B505D10FF0ACF8BDE80840FFF7DCBE27
:1036F00008BD0000074A02600022C0E90122C0E9BB
:103700000322C0E90522C0E907224FF480728284B7
:10371000704700BF9882020870B5036804461B6BAF
:10372000154698472368294620465B6BBDE87040E4
:10373000184770B5036804469B6B15469847236885
:1037400029462046DB6BBDE87040184710B526229D
:103750000446002121F0F7FC2046FFF7CBFF044B85
:103760002360FF2384F826300023A362204610BD87
:103770007480020810B526220446002121F0E3FCE3
:103780002046FFF7B7FF0A4B23600A4BA3624FF6B0
:10379000FF73A3854FF47F020023C4E90C32238713
:1037A0004FF0FF32C4E91023E363204610BD00BF91
:1037B000E47F02087066020870B50446FFF79AFFBE
:1037C0004FF47F432646A3850123002584F8243047
:1037D000144BA562256346F8343B3046FFF7B6FF2D
:1037E000114B63632A4629463046C4E91A55C4E999
:1037F0001C552566A4F86450FFF78EFF314620461D
:10380000264606F0DDFE094B46F8783B3046FFF7CA
:10381000B1FF2046C4E93055314606F0D1FE2046BE
:1038200070BD00BF686C020860810208046D020868
:1038300038B5044600F1780528460CF069F9B4F96A
:103840000A20B4F908102846FFF773FF38BD0000BE
:103850002DE9F04F044691B0A146002510F06CFF11
:10386000D34BE56349F8403B04F16C074846FFF74A
:103870006DFF384607F068FA04F5B07304F5C678B2
:103880001846DFF850B3039304F5DC76FFF732FFF8
:103890004FF6FF7A0EA9C4F860B1C4F888514046CB
:1038A000ADF838A00BF096FB3046FFF785FF04F526
:1038B000207318460293FFF75DFF04F53273184634
:1038C0000493FFF717FF04F53D73C4F8C8B2184618
:1038D00004F54F7BC4F8F0520593FFF74BFF5846B1
:1038E000FFF76AFF04F204430EA918460693ADF8E9
:1038F00038A00BF06FFBAF4BC4F83034AE4BC4F8BC
:103900003834F0232A46C4F83444C4F83C542946D9
:10391000009348464FF4A073FFF7B8FB4FF07F4386
:10392000A3664946201D06F04BFE2A462946384626
:10393000FFF7F2FE4FF002094FF003030EAA0DA9A4
:103940003846ADF83830ADF8349007F09BFADC22F9
:1039500038468C2107F044F93846322107F0BBF88D
:103960003846322107F03AF9944BC4F868310EA971
:103970004046ADF838500CF087FB8C210B463D22B9
:10398000009140461421FFF781FB294640460BF089
:10399000DCFA039841464FF0250806F011FE2A464E
:1039A000294604F5F670CDF800805B23FFF76EFB27
:1039B000834A844B84484FF00501C4E98A32A4F855
:1039C0001C12D4F8B8318149D3F88C30C4E988107E
:1039D000304698470DF1380E71467D4BADF83C905E
:1039E0003046DFF8F4910E93FFF722FF29465B2360
:1039F0000B2204F50C70CDF80080FFF747FB304632
:103A0000C4E99E99FFF7E1FD04F58663C4F8E83147
:103A100071225B233046CDF80080CF21FFF736FBC3
:103A20000398314606F0CCFD02980D222E21FFF7B7
:103A300073FE08AE4FF0FF33C4F8B0320299A4F819
:103A4000B45230460BF0CAFD96E8070004F52F7E0D
:103A50004FF0010A8EE80700029984F8B9A23046B7
:103A6000CDF81CE00BF0BAFD96E80700079B0DF1BE
:103A7000380E4FF0030C83E807007146544B029850
:103A8000ADF83CC00E930CF043F8DDE9021006F0EF
:103A900097FD0399384607F07EFA484A0598C4F81E
:103AA000D02247211922FFF737FE4FF0FF33059947
:103AB000C4F824333046A4F828530BF08FFD96E861
:103AC00007000DF1380E04F54C7383E80700404EF3
:103AD00005980E967146ADF83CA00CF019F8DDE99A
:103AE000040106F06DFD2A46294604F55C70CDF808
:103AF00000805B23FFF7CAFA314A324B3349324820
:103B0000C4E9EB32D4F83C334FF0050CA4F8A0C361
:103B1000C4E9E910D3F88C30584698470EA95846A6
:103B20000E96ADF83C50FFF783FE29465B230B222F
:103B300004F56D70CDF80080FFF7A8FA5846C4F878
:103B4000FC93C4F80094FFF740FD5B2371225846B4
:103B5000CDF80080CF21FFF799FA0498594606F076
:103B60002FFD0698ADF838A00EA90CF08DFA502361
:103B70005B220698009314218C23FFF787FA06989E
:103B800029460BF0E2F90699049806F019FD04990C
:103B9000384607F000FA5146384607F0EDF9201D87
:103BA000394606F00DFD204611B0BDE8F08F00BF8C
:103BB000B86D0208A06D0208DB3600084001F00075
:103BC000996633FF663300FFCC9900FF996600FFCA
:103BD00070660208587702080A0A0AFF10B5044BFB
:103BE000044640F86C3B06F081FF204610BD00BF44
:103BF000B86D020810B50446FFF7F0FF20464FF4F9
:103C0000886120F052F9204610BD80F82C107047D2
:103C100010B40368046BD3F8A430624361435DF8C9
:103C2000044B1847D0ED0C7A0368F8EEE77A10B42D
:103C300020EE270AD3F8A440B5EEC00AF1EE10FA40
:103C40001ADBB6EE007A30EE070ABDEEC07A17EE48
:103C5000101A60EEA70AF5EEC00AF1EE10FA1EDBAC
:103C6000F6EE007A70EEA70AFDEEE07A17EE902AE3
:103C700023465DF8044B1847BDEEC07AF8EEC76ADC
:103C800017EE103A30EE660AF7EE086A30EE260AB2
:103C9000013BBDEEC00A10EE101A1944D9E7FDEE43
:103CA000E07AB8EEE77A17EE903A70EEC70AB7EE10
:103CB000087A70EE870A013BFDEEE00A10EE902ACA
:103CC0001A44D5E710B40368046BD3F8B0306243EC
:103CD0005DF8044B1847D0ED0C7A0368F8EEE77AEC
:103CE00010B427EE800AD3F8B040B5EEC00AF1EE6A
:103CF00010FA0BDBF6EE007A30EE270AFDEEC07A02
:103D000017EE902A23465DF8044B1847FDEEC07A63
:103D1000B8EEE77A17EE903A30EE470AB7EE087A37
:103D200030EE070A013BBDEEC00A10EE102A1A441D
:103D3000E8E710B40368446BD3F8BC3062436143D6
:103D40005DF8044B1847D0ED0D7A0368F8EEE77A7A
:103D500010B420EE270AD3F8BC40B5EEC00AF1EE4D
:103D600010FA1ADBB6EE007A30EE070ABDEEC07A22
:103D700017EE101A60EEA70AF5EEC00AF1EE10FA7F
:103D80001EDBF6EE007A70EEA70AFDEEE07A17EE83
:103D9000902A23465DF8044B1847BDEEC07AF8EE32
:103DA000C76A17EE103A30EE660AF7EE086A30EE90
:103DB000260A013BBDEEC00A10EE101A1944D9E7DD
:103DC000FDEEE07AB8EEE77A17EE903A70EEC70AA9
:103DD000B7EE087A70EE870A013BFDEEE00A10EEBE
:103DE000902A1A44D5E710B40368446BD3F8C03066
:103DF00062435DF8044B1847D0ED0D7A0368F8EE86
:103E0000E77A10B427EE800AD3F8C040B5EEC00AB6
:103E1000F1EE10FA0BDBF6EE007A30EE270AFDEE3B
:103E2000C07A17EE902A23465DF8044B1847FDEE42
:103E3000C07AB8EEE77A17EE903A30EE470AB7EE5E
:103E4000087A30EE070A013BBDEEC00A10EE102AD8
:103E50001A44E8E7D0F82C31026B002B07DB02EBA9
:103E6000430090FBF2F000EBD070401070476FF011
:103E7000010101FB0320013890FBF2F000EBD07050
:103E8000401040427047D0ED4B7A90ED0C0AF8EEAE
:103E9000E77AB8EEC00A87EE800A7047D0F82C01A6
:103EA0007047D0F83031026B002B07DB02EB430088
:103EB00090FBF2F000EBD070401070476FF0010102
:103EC00001FB0320013890FBF2F000EBD0704010B2
:103ED00040427047D0ED4C7A90ED0C0AF8EEE77A4C
:103EE000B8EEC00A87EE800A7047D0F830017047FC
:103EF000D0F83431426B002B07DB02EB430090FB20
:103F0000F2F000EBD070401070476FF0010101FB40
:103F10000320013890FBF2F000EBD07040104042DB
:103F20007047D0ED4D7A90ED0D0AF8EEE77AB8EED5
:103F3000C00A87EE800A7047D0F834017047D0F885
:103F40003831426B002B07DB02EB430090FBF2F0B1
:103F500000EBD070401070476FF0010101FB0320AF
:103F6000013890FBF2F000EBD070401040427047F7
:103F7000D0ED4E7A90ED0D0AF8EEE77AB8EEC00A71
:103F800087EE800A7047D0F83801704770B5036833
:103F90000446D3F888300D461646984723683246C3
:103FA00029462046D3F89030BDE870401847036892
:103FB000D3F8943018470368D3F8D430184703680F
:103FC000D3F8E03018470368002A10B4D3F8A430BF
:103FD000046B0EDB04EB420292FBF4F101EBD171B6
:103FE0004910B0F91E215DF8044B013A0A444942D8
:103FF00018476FF0010101FB0241013991FBF4F117
:1040000001EBD17149104942EBE70368D3F83C3129
:104010001847026B03685143D3F8483118470368C7
:10402000D3F844311847D0ED0C7A0368F8EEE77AFC
:10403000D3F8482127EE800AB5EEC00AF1EE10FA57
:1040400008DBF6EE007A30EE270AFDEEC07A17EEB6
:10405000901A1047FDEEC07AB8EEE77A17EE903A64
:1040600030EE470AB7EE087A30EE070A013BBDEEA4
:10407000C00A10EE101A1944EBE7C0F83C11704763
:104080000368D3F850311847036810B5D3F85C3192
:10409000044698470028236B07DB03EB400090FBA6
:1040A000F3F000EBD070401010BD6FF0010202FB86
:1040B0000030013890FBF3F000EBD070401040422C
:1040C000F2E70368D3F858311847036810B5D3F8FE
:1040D0005C310446984794ED0C0A07EE900AB8EE5E
:1040E000C00AF8EEE77A87EE800A10BDD0F83C01EE
:1040F0007047026B03685143D3F868311847D0ED1D
:104100000C7A0368F8EEE77AD3F8682127EE800A84
:10411000B5EEC00AF1EE10FA08DBF6EE007A30EEEA
:10412000270AFDEEC07A17EE901A1047FDEEC07A0E
:10413000B8EEE77A17EE903A30EE470AB7EE087A13
:1041400030EE070A013BBDEEC00A10EE101A19440A
:10415000EBE7C0F840117047036810B5D3F874312D
:10416000044698470028236B07DB03EB400090FBD5
:10417000F3F000EBD070401010BD6FF0010202FBB5
:104180000030013890FBF3F000EBD070401040425B
:10419000F2E7036810B5D3F874310446984794EDFC
:1041A0000C0A07EE900AB8EEC00AF8EEE77A87EE3E
:1041B000800A10BDD0F84001704708467047036878
:1041C000026BD3F88431002910B504460EDB02EBF4
:1041D000410191FBF2F101EBD171491009B2204686
:1041E0009847D4E94F2302FB003010BD6FF0010067
:1041F00000FB0121013991FBF2F101EBD171491072
:104200004942EBE7006B7047406B70470368D3F897
:10421000483118470368D3F85C311847026B0368CC
:104220005143D3F814311847036870B5D3F81851C7
:10423000D3F88031D0F84461044698472B4656F8AD
:1042400020102046BDE870401847C1627047C06A20
:1042500070470120704770477047C06B18B1036802
:10426000D3F880301847704730B5B2F81A11B2F958
:104270001441B2F94050B2F8422044802144521A0D
:10428000002101808580C28030BD10B54280BDF91B
:104290000840BDF90C2004808280C38010BD0B68EB
:1042A0000846D3F8D43018470B680846D3F8E030F6
:1042B0001847B1F914017047B1F81431B1F81A2157
:1042C000B1F842001344C01A00B27047B1F91601A8
:1042D0007047B1F81631B1F81821B1F84000134415
:1042E000C01A00B270470B680846D3F81431114663
:1042F000184730B5B2F91651B2F81841B2F840106B
:10430000B2F9422005802C44091B0024448081809E
:10431000C28030BD02808380BDF90020BDF9043029
:104320004280C38070470B680846D3F8EC301847CA
:104330000B680846D3F8F8301847B1F916017047F2
:10434000B1F81631B1F81821B1F840001344C01A81
:1043500000B27047B1F914017047B1F81431B1F8E7
:104360001A21B1F842001344C01A00B270470B681A
:104370000846D3F818311146184770477047704700
:1043800070477047704730B4C268446855100346A0
:1043900004EB6200D20748BF62599B6830BC48BF3B
:1043A000D35818470346406830B19A681AB9D8689C
:1043B00000F0010070470120704790F82D3080F820
:1043C0006830704710B56C2104461FF06EFD204622
:1043D00010BD10B5402104461FF067FD204610BDFA
:1043E00010B5402104461FF060FD204610BD10B5F9
:1043F0004FF4CA6104461FF058FD204610BD10B5A9
:10440000102104461FF051FD204610BD38B503466B
:10441000D3E90C540B680846D3F88C3098472946EA
:1044200002462046BDE8384009F0B2BE38B5034622
:10443000D3E90C540B680846D3F8943098472946C2
:1044400002462046BDE8384009F0A2BE0146403091
:1044500091F82C3013B13E310BF016BE3C31FBE726
:1044600010B5034B036004460CF01AFD204610BD46
:10447000D073020810B5064B036004460CF010FD23
:10448000204641F624411FF010FD204610BD00BF1C
:10449000D073020808B590F82C300BB1FDF7A2FBE1
:1044A00008BD90F82C3010B504466BB1B0F9383027
:1044B000B0F93A209A4208D10368D3F88830984777
:1044C00000232387E38E638710BD01330387FBE757
:1044D0000A1E10B503DBB0F91E41944206DC084BFE
:1044E000084A094840F2396120F026FC0368D0F8F8
:1044F0004441D3F88031984754F8200010BD00BFE4
:10450000E46D0208076E0208566E02080B1E10B515
:10451000044603DBB0F91E219A4206DC074B084A29
:10452000084840F2336120F007FC0368D3F8843177
:104530009847D4E94F2302FB003010BDE46D020818
:10454000B36E0208566E020838B500F2B473994291
:1045500004460D4603D10EF073F9FEF795FF04F6FD
:104560007C039D4208D10C4B9A6A92B2B2F5FA6F65
:104570003EBF9A6A01329A6204F6E804A54209D164
:10458000054B996A4FF6FE7211421EBF9A6A02F1FC
:10459000FF329A6238BD00BF0014004038B50B7975
:1045A00090F82C2004460D468BB98AB1236820462A
:1045B000D3F88830984700232387A38E63870EF0B3
:1045C0003FF921460430BDE838400EF007BA82B109
:1045D000B3FA83F35B0984F82C3023682046D3F8C0
:1045E0008C309847236820465B6998472B79002BCD
:1045F000DCD00EF025F921460430BDE838400EF03D
:1046000044B90B882DE9F04183871388B0F908502D
:10461000C38704461046904611F0C0FAB4F90A3038
:10462000074603EBD3734046C3F34F0611F0EAFA93
:1046300005EBD575C5F34F0500EBD07007EBD777C9
:10464000A6EB6002A5EB670104F1400012B209B2CB
:10465000FFF762F823682046D3F88C30BDE8F041BC
:10466000184700000022C0E90122C0E90322C0E986
:104670000522C0E907224FF480728284014A026059
:10468000704700BF0C6F020837B501AB15460FF03D
:1046900089FE00284FEA401401992A464FF0200075
:1046A00004DB0FF09EFE204403B030BD0FF099FEF6
:1046B000201AF9E770B5B0F81A31B0F91441B0F822
:1046C00042502344ED1AD0E94D320E462DB2D21A93
:1046D000691EF01AFFF7D8FF2C44013CC0EB4410D0
:1046E00070BD38B504460D46B4F81631B4F818114B
:1046F0000B44B4F84010D0E94B02C91A09B2121A9F
:104700000139281AFFF7C0FFB4F9163100EB431046
:1047100038BD0000094A02600022C0E90122C0E958
:104720000322C0E90522C0E9072282624FF47F41DB
:10473000026340F20112818582847047E4700208AE
:1047400073B504462546FFF7E5FF144B45F8403B9B
:10475000134B0021C4E90D314FF0FF332622E363F0
:104760004FF6FF762846ADF8046020F0ECFC2846B2
:10477000FFF778FF0B4B2364BDF80430A4F86630D4
:1047800001A9284684F868600BF07EFC2046294683
:1047900005F016FF204602B070BD00BF1873020876
:1047A0001E000F00C88102082DE9F04F04468FB0AB
:1047B000274600250FF0C0FFD84BE56347F8403B84
:1047C00004F16C093846FEF7C1FF4FF4A07148466A
:1047D00009F07AFCD24BE3664FF0010A04F5DE7370
:1047E000294640F23F12C4E96AA5C4E96C3548463F
:1047F000FFF70EFACB4BE36604F2BC63A4F8B851A2
:104800001846059309F0D6F8C74BC4F8BC360A26FB
:1048100004F2FC63C4F8ECA6C4F8F06684F8F4A6CD
:10482000C4F8E856C4F8F8561846069309F0C2F8DA
:10483000BE4BC4F8FC3604F23C73C4F82CA7C4F891
:10484000306784F834A7C4F82857C4F83857184696
:10485000079309F0AFF8B64BC4F83C3704F26C721A
:104860004FF0020384F8683710460892FDF7E8F924
:10487000B04BC4F86C3704F5F0622433C4F87437D5
:104880001046C4F8785704F2B478099209F092F807
:10489000A94BC4F88037C4F8AC574046FEF78CFFEC
:1048A00004F67C0210460392FFF74AFF04F6E80282
:1048B00010460492FFF744FF04F580539F4AC3F863
:1048C000142C9F4AC3F8184CC3F81C2CC3F8205C66
:1048D00004F654104FF496510CF0D8FAF0232A46FF
:1048E0000093294638464FF4A073FEF7CFFB261DF0
:1048F0004FF07F43A3663946304605F061FE9623AC
:1049000000932A464FF4A07329464846FEF7BEFBA3
:104910002A4648466421FFF739FB2B462A4629469A
:104920004846009509F082FB2B462A462946484610
:10493000009509F0B9FADFED830A9FED830A484636
:10494000FFF701FAD4F8EC1684F8F4A688010028E1
:10495000B8BF40424FF0FF37C4F8E8766422C4F88D
:10496000F00609F015FC4FF0640B0599C4F8F00649
:10497000C4F8ECB6484609F0A2FAD4F82C17C4F8EB
:10498000287781EAE170A0EBE1705A4684F834A7F9
:10499000C4F8300709F0FCFB0699C4F83007C4F8E6
:1049A0002CB7484609F08BFA684BC4F878374FF6B5
:1049B0000663A4F87C37089BC4F864374FF0020301
:1049C000079984F86837484609F079FA604BC4F8CB
:1049D000AC370999A4F8B0A7484609F070FA4FF02F
:1049E0001A0B4946304605F0EBFD2A462946CDF81C
:1049F00000B004F5FD603223FEF748FB554BC4F8C8
:104A00001C3803F54C533333C4F82038A3F5CC439A
:104A1000663BC4F8243803F1331303F54C53C4F850
:104A20002838D4F8B4374FF0050A4046D3F88C3014
:104A3000A4F818A898474FF00409474B0C9304F6C4
:104A40002C000CA90590ADF834900BF061F8B4F986
:104A5000BE27B4F9BC170598FEF76BFE52462946EF
:104A60000598CDF800B03223FEF710FBC4F8747837
:104A7000C4F8787804F5E05714374046FEF7A5FDF2
:104A8000C4F8E4773223CDF800B0D6222946404658
:104A9000FEF7FCFA414630464FF0011805F090FD54
:104AA0004FF0320B0398C4F8B08806230CAA0BA968
:104AB000ADF82C30ADF83090FFF7A3FD5B460398BE
:104AC000C4F8C058C4F8AC78AE22CDF800B05A2172
:104AD000FEF7DCFA0399304605F072FD0498C4F83D
:104AE0001C890CAA0BA9ADF82CA0ADF83090FFF7EB
:104AF00088FD0498C4F82C59C4F818795B46AE2296
:104B0000CDF800B0B421FEF7C1FA3046049905F0A3
:104B100057FD20460FB0BDE8F08F00BFD0730208EC
:104B2000347B020880710208746F02082C7002083E
:104B3000FC7D0208247A0208787E0208B873020815
:104B4000494500089A9959400000000033C2FFFF10
:104B5000C59714FF996600FF706602087047000051
:104B600030B5164D2C68BFF35B8F14F001048FB085
:104B700021D128461FF09BF9E8B13F230993104B40
:104B80000893104B104911480A94CDE906430122BD
:104B90000423CDE903320A2300930822CDE90B4414
:104BA000CDE901440594FEF7C1FC094820F0E2F884
:104BB00028461FF088F905480FB030BDA432002008
:104BC000DC990208F099020818980208A83200201F
:104BD0005D4B00087047000030B5164D2C68BFF3E0
:104BE0005B8F14F001048FB020D128461FF05FF9CD
:104BF000E0B13F230993104B0893104B1049114823
:104C00000A940122CDE906430423CDE9033210239F
:104C10000093CDE90B44CDE901440594FEF786FCF1
:104C2000094820F0A7F828461FF04DF905480FB0B5
:104C300030BD00BFD4320020E0990208F499020888
:104C400088980208D8320020D54B00087047000031
:104C500030B5174D2C68BFF35B8F14F001048FB093
:104C600022D128461FF023F9F0B13F230993114BBD
:104C70000893114B114912480A94CDE906430122C9
:104C80000423CDE90332142300930C221823CDE929
:104C90000B44CDE901440594FEF748FC094820F097
:104CA00069F828461FF00FF905480FB030BD00BF66
:104CB00004330020E4990208F89902089898020841
:104CC000083300204D4C00087047000030B5174DE8
:104CD0002C68BFF35B8F14F001048FB022D12846FB
:104CE0001FF0E5F8F0B13F230993114B0893114BE6
:104CF000114912480A94CDE9064301220423CDE963
:104D00000332282300930B223023CDE90B44CDE955
:104D100001440594FEF70AFC094820F02BF82846C8
:104D20001FF0D1F805480FB030BD00BF343300206C
:104D3000E8990208FC9902084099020838330020DB
:104D4000C94C000800207047002070470EB403B51E
:104D500003AB002153F8042B01930EF007FD02B0C2
:104D60005DF804EB03B070470CB407B504AB53F81F
:104D7000042B01930EF0FAFC03B05DF804EB02B0D3
:104D800070470000436C10B5044673B3038F2BB912
:104D9000184B194AC52119481FF0CEFFC38E00EBEE
:104DA00043035B8C0BB310F012FC238F012B03D851
:104DB000134B144ACB21EEE7E28E531C9BB2092B16
:104DC000194688BFA3F10A0104EB410140F63F10E8
:104DD000498C814209D10A2B04EB420228BF0023EF
:104DE00004EB4303508C588451842046BDE81040A6
:104DF00010F0F0BAFC73020805740208B0740208DF
:104E0000FA7402080875020810F0ABBA10B586B043
:104E100002AC84E806001A460AAB05930193099B8D
:104E200000932146089B0DF0D3F806B010BD00009A
:104E300038B518BB124B13481C681349B4B122682B
:104E400022440260626822440A60A26814440F4B44
:104E500000221A8000F038F8054600F033F80C4BB9
:104E60001C600C4B1D600C4B188007E00B4B036063
:104E70000B4B0B600B4B1C68002CE8D138BD00BFFE
:104E80007033002068330020643300206C3300202E
:104E90004C4101205441012050410120149A020844
:104EA000009A0208649A0208044B1B6853F8210018
:104EB000034B1B6803EB4000704700BF64330020C6
:104EC0006833002005207047004870477433002085
:104ED00010B5FFF781FE064C2060FFF7F7FE60601B
:104EE000FFF73EFEA060FFF7B3FEE06010BD00BF1D
:104EF0007433002010B5002404600C6014601C6042
:104F000010BD704710B54FF4AE7104461EF0CDFFD2
:104F1000204610BD10B50446D0F8580100F04FF8F7
:104F20002046BDE810400DF027BD000010B5044636
:104F3000FEF76AFA014B2360204610BDE4750208B3
:104F4000704704387047704710B5102104461EF0B2
:104F5000ACFF204610BDA0F10400F5E700228260FE
:104F6000024A026018324260C16070473876020817
:104F70007047000010B5034B03600446FEF72EFE99
:104F8000204610BD6076020810B50446FFF7F2FF18
:104F900020464FF488611EF088FF204610BD0000B7
:104FA00010B50446FEF754FC014B2360204610BDAB
:104FB00060760208FEF7F4BA00220260704770477C
:104FC000704704387047704710B5102104461EF032
:104FD0006CFF204610BDA0F10400F5E700228260BE
:104FE000024A026018324260C1607047947602083B
:104FF00070B51D4D1D4E04462B6823B9BDE87040A9
:105000001B4802F07FBFD4ED287A96ED007AF8EEC7
:10501000E77A04F16C0067EE877AF5EEC07AF1EE7C
:1050200010FA0DDBB6EE007A77EE877AFDEEE77ABE
:1050300017EE901A09F006F92B68013B2B60DBE7AD
:10504000BDEEE77AF8EEC76A17EE103A77EEE67A29
:10505000F7EE086A77EEA67A013BFDEEE77A17EEE7
:10506000901A1944E6E700BF8433002088330020FB
:10507000C82F0020014802F07FBF00BFC82F0020CA
:1050800010B5034B03600446FFF7EAF9204610BD54
:10509000BC76020810B50446FFF7F2FF204641F641
:1050A00074411EF002FF204610BD000010B50446FA
:1050B000FFF77AFB054B236004F5E1500C3000F05C
:1050C0009FFB034802F01EFF204610BDBC7602087D
:1050D000C82F0020FFF751B9F02070474FF4A0709F
:1050E00070472920FDF772B92820FDF76FB908B580
:1050F000FDF740F9CA20FDF769F9C320FDF74AF929
:105100000820FDF747F95020FDF744F9CF20FDF7BF
:105110005DF90020FDF73EF9C120FDF73BF9302095
:10512000FDF738F9ED20FDF751F96420FDF732F96C
:105130000320FDF72FF91220FDF72CF98120FDF750
:1051400029F9E820FDF742F98520FDF723F9002031
:10515000FDF720F97820FDF71DF9CB20FDF736F992
:105160003920FDF717F92C20FDF714F90020FDF781
:1051700011F93420FDF70EF90220FDF70BF9F720A5
:10518000FDF724F92020FDF705F9EA20FDF71EF9C7
:105190000020FDF7FFF80020FDF7FCF8B120FDF737
:1051A00015F90020FDF7F6F81B20FDF7F3F8B620FF
:1051B000FDF70CF90A20FDF7EDF8A220FDF7EAF85B
:1051C000C020FDF703F91020FDF7E4F8C120FDF73A
:1051D000FDF81020FDF7DEF8C520FDF7F7F84520B3
:1051E000FDF7D8F81520FDF7D5F8C720FDF7EEF844
:1051F0009020FDF7CFF83620FDF7E8F8C820FDF73E
:10520000C9F8F220FDF7E2F80020FDF7C3F8B0205E
:10521000FDF7DCF8C220FDF7BDF8B620FDF7D6F8A3
:105220000A20FDF7B7F8A720FDF7B4F82720FDF70F
:10523000B1F80420FDF7AEF82A20FDF7C7F80020EA
:10524000FDF7A8F80020FDF7A5F80020FDF7A2F86B
:10525000EF20FDF79FF82B20FDF7B8F80020FDF7B1
:1052600099F80020FDF796F80120FDF793F83F200C
:10527000FDF790F8F620FDF7A9F80120FDF78AF870
:105280000020FDF787F80620FDF784F82C20FDF7B5
:105290009DF8C820FDF7E8F82620FDF797F80120D3
:1052A000FDF778F8E020FDF791F80F20FDF772F890
:1052B0002920FDF76FF82420FDF76CF80C20FDF78E
:1052C00069F80E20FDF766F80920FDF763F84E2017
:1052D000FDF760F87820FDF75DF83C20FDF75AF8FF
:1052E0000920FDF757F81320FDF754F80520FDF7C6
:1052F00051F81720FDF74EF81120FDF74BF800206C
:10530000FDF748F8E120FDF761F80020FDF742F8CD
:105310001620FDF73FF81B20FDF73CF80420FDF7B1
:1053200039F81120FDF736F80720FDF733F8312062
:10533000FDF730F83320FDF72DF84220FDF72AF86D
:105340000520FDF727F80C20FDF724F80A20FDF7CB
:1053500021F82820FDF71EF82F20FDF71BF80F205D
:10536000FDF718F81120FDF731F8C820FDF77CF89B
:105370002920FDF72BF8BDE808402C20FDF726B8C2
:1053800008B5FCF7F7FF0321D320FDF73BF880B207
:1053900008BD10B5C4B2022203212046FCF7A0FFCD
:1053A0000A20FCF7E5FF204600220321FCF798FFC6
:1053B000BDE810400220FCF7DBBF38B50446E4B27C
:1053C000FCF78CFF00212046FCF7A2FF01210546D7
:1053D0002046FCF79DFF40EA052080B238BD10B59D
:1053E000C4B240212046FCF793FF030607D54C21A9
:1053F0002046FCF78DFF003818BF012010BD0122A8
:105400004B212046FCF76CFF204600224B21FCF785
:1054100067FF0020F2E773B50423C4B20E461546B9
:10542000D7210DEB03022046FCF78CFF019B1BBA32
:105430001A0DC3F30B23328020462B8001224B210F
:10544000FCF74EFF00224B212046FCF749FF02B03B
:1054500070BD000010B50A4A1378984204460DD07A
:10546000517888420AD00BB141B90123D454FCF7DA
:1054700035FF2046BDE81040FFF78BBF10BD00BFD1
:105480008C33002010B5C4B209212046FCF740FF40
:1054900040F00102D2B220460921BDE81040FCF7DD
:1054A0001FBF10B5C4B209212046FCF731FF092106
:1054B00000F0FE022046BDE81040FCF711BF38B5F1
:1054C000C4B20D4620460A21FCF722FF40EA05023D
:1054D000D2B220460A21BDE83840FCF701BF10B522
:1054E0000446FCF7FCFE20461F21FFF7E8FF20469C
:1054F000BDE81040FFF7C6BF38B5C4B20D46204620
:105500000A21FCF705FF20EA0502D2B220460A2153
:10551000BDE83840FCF7E4BE10B50446FFF7C1FF14
:1055200020461F21BDE81040FFF7E6BF10B5C0B20E
:105530000C460B21FCF7ECFE204010BD1F21FFF7AD
:10554000F5BF0A46C0B20B21FCF7CABE1F21FFF708
:10555000F8BF38B5C4B20D4620461721FCF7D8FE77
:1055600020EA0502D2B220461721BDE83840FCF7F8
:10557000B7BE70B5C4B2064604212046FCF7C8FE8B
:10558000042100F0FB0205462046FCF7A9FE304648
:10559000F021FFF7DEFF05F0F80220460421FCF7BA
:1055A0009FFE492220212046FCF79AFE0220FCF7AC
:1055B000DFFE204601222121FCF792FE20469A229E
:1055C0004121FCF78DFE204601224A21FCF788FE8E
:1055D000204601224B21FCF783FE204600224B216E
:1055E000FCF77EFE204601225621FCF779FE20467C
:1055F00001225821FCF774FE204601224021FCF7CD
:105600006FFE2046FF220B21FCF76AFEBDE87040CA
:105610000220FCF7ADBE0000054BD3F8882042F411
:105620007002C3F888204FF000629A60704700BF94
:1056300000ED00E008B50B4B1A6842F400721A60E6
:105640001A6842F480621A601A6842F480721A6022
:10565000032000F085FA0020FDF7C4F9FCF712FFE3
:10566000002008BD003C0240034A044B11681B782F
:105670000B441360704700BF903300207800002077
:10568000014B1868704700BF9033002038B50446BE
:10569000FFF7F6FF631C1CBF054B1B78054618BFC0
:1056A000E418FFF7EDFF431BA342FAD338BD00BF58
:1056B0007800002038B50446002800F09B80056C77
:1056C00025B9FCF7FFFE656484F83C50236CDB06CB
:1056D00000F18E80236C23F4885323F0020343F0FF
:1056E00002032364444B5A6822F440325A605A68D9
:1056F00061680A435A60236821695A6822F48072FB
:105700005A605A6842EA01225A605A68A16822F037
:1057100040725A605A680A435A609A68E16822F4F3
:1057200000629A609A680A439A603449A26A8A427F
:1057300052D0996821F07061996099680A439A6023
:105740009A68E16A22F040529A609A680A439A6025
:105750009A6822F002029A609A68217E42EA410227
:105760009A6094F82020002A3ED05A68616A42F478
:1057700000625A605A6822F460425A605A680139DD
:1057800042EA41325A60DA6AE16922F47002DA626E
:10579000DA6A013942EA0152DA629A6822F4007246
:1057A0009A609A6894F8301042EA41229A609A68A6
:1057B000616922F480629A609A68002042EA81223C
:1057C0009A606064236C23F0030343F001032364B5
:1057D000002384F83C3038BD9A6822F070629A60E9
:1057E0009A6822F04052B2E75A6822F40062C9E790
:1057F0000120EDE70120EEE7002301400100000F4A
:1058000082B00023019390F83C30012B69D0012332
:1058100080F83C3003689A68D2070BD59A68D107A4
:105820001AD4036C43F010030364436C43F0010388
:1058300043644CE09A682C4942F001029A602B4A7A
:105840001268B2FBF1F202EB42020192019A002AC5
:10585000E4D0019A013AF8E7026C22F4E06222F007
:10586000010242F4807202645A68520541BF026C20
:1058700022F4405242F480520264026C12F48052CC
:105880001CBF426C22F006024264002280F83C20D9
:105890006FF022021A60164A516811F01F0F154965
:1058A0001CD18B4207D001F580718B420CD152681C
:1058B00012F01F0F0BD19A6812F0405F07D19A685F
:1058C00042F080429A6002E00B498B4202D00020F5
:1058D00002B07047526812F0100FEBE78B42F6D11E
:1058E000E9E70220F4E700BF40420F007400002007
:1058F0000023014000200140002201400368D86CD1
:105900007047704770477047036870B51E685D68E0
:10591000B20704462BD5A80629D5226CD1065EBF56
:10592000226C42F4007222649A6812F0405F17D130
:10593000227EAAB9DA6A12F4700F02D09A68520570
:105940000ED45A6822F020025A60236C23F480732C
:105950002364236CD8045EBF236C43F001032364EB
:105960002046FFF7CEFF23686FF012021A6071071E
:1059700033D52A0631D5236CDB065EBF236C43F496
:105980000053236423689A6812F4401F1ED19A6B57
:1059900012F4401F02D09A68500517D45A68510576
:1059A00014D49A6812F0405F10D1227E72B95A68FE
:1059B00022F080025A60236C23F480532364236C0A
:1059C000DA055EBF236C43F001032364204600F038
:1059D000C5F823686FF00C021A60F30710D568064B
:1059E0000ED523681B68D9070AD5236C43F480338E
:1059F00023642046FFF786FF23686FF001021A60D8
:105A0000B2060ED56B010CD5636C43F002036364E0
:105A100023686FF020051D602046FFF774FF2368A0
:105A20001D6070BDF7B50023019390F83C30012B49
:105A3000054600F08680012380F83C3008682B681A
:105A40008E68092884B233D904EB4402DF681E3A19
:105A50004FF0070C0CFA02FC27EA0C07DF60DF6846
:105A600006FA02F23A43DA604968062901EB81023C
:105A70002DD8596B053A1F26964021EA0601596335
:105A8000596B04FA02F20A435A632F4A93420AD12D
:105A9000122837D12D4B5A6822F400025A605A68F6
:105AA00042F480025A60002085F83C0003B0F0BD4B
:105AB0001A6900EB400C072707FA0CF722EA0702E5
:105AC0001A611A6906FA0CF616431E61CCE70C2916
:105AD0004FF01F010BD81E6B233A914026EA0101BB
