:020000040800F2
:10000000C80F002055030008296700085D54000848
:100010002567000885120008F96E0008000000003E
:100020000000000000000000000000009502000831
:10003000AB14000800000000F1020008496A000843
:100040006F0300086F0300086F0300086F030008C8
:100050006F0300086F0300086F0300086F030008B8
:100060006F0300086F0300086F0300086F030008A8
:100070006F0300086F0300086F0300086F03000898
:100080006F0300086F0300086F0300086F03000888
:100090006F0300086F0300086F0300086F03000878
:1000A0006F0300086F0300086F0300086F03000868
:1000B0006F0300086F0300086F0300086F03000858
:1000C0006F0300086F0300086F0300086F03000848
:1000D0006F0300086F0300086F0300086F03000838
:1000E0006F0300086F0300086F0300086F03000828
:1000F0006F0300086F0300086F0300086F03000818
:100100006F0300086F0300086F0300086F03000807
:100110006F0300086F0300084D6B00086F030008B1
:10012000811300086F0300086F0300086F030008C5
:10013000911300086F0300086F0300086F030008A5
:100140006F0300086F0300086F0300086F030008C7
:100150006F0300086F0300086F0300086F030008B7
:100160006F0300086F0300086F0300086F030008A7
:100170006F0300086F0300086F0300080000000011
:100180006F0300086F0300086F0300086F03000887
:100190006F0300086F0300086F0300086F03000877
:1001A0004D5E00086F0300088912000800F002F895
:1001B00000F061F80AA090E8000C82448344AAF1A0
:1001C0000107DA4501D100F056F8AFF2090EBAE89E
:1001D0000F0013F0010F18BFFB1A43F0010318477B
:1001E00050B6000070B600000A444FF0000C10F842
:1001F000013B13F0070408BF10F8014B1D1108BFA5
:1002000010F8015B641E05D010F8016B641E01F844
:10021000016BF9D113F0080F1EBF10F8014BAD1C94
:100220000C1B09D16D1E58BF01F801CBFAD505E0B2
:1002300014F8016B01F8016B6D1EF9D59142D6D30C
:10024000704700000023002400250026103A28BF34
:1002500078C1FBD8520728BF30C148BF0B60704738
:10026000642900F04F81002070471FB507F05CFC47
:100270001FBD10B510BD00F065FA1146FFF7F5FF80
:1002800006F0D6FF00F083FA03B4FFF7F2FF03BCD9
:1002900006F050FE2C4B19680868B0E8F04F80F368
:1002A0000988BFF36F8F4FF0000080F3118870470B
:1002B0000000000008480068006880F308884FF0DC
:1002C000000080F3148862B661B6BFF34F8FBFF3AE
:1002D0006F8F00DF00BF00BF08ED00E0DFF80C000B
:1002E000016841F470010160704700BF88ED00E0D3
:1002F000EFF30980BFF36F8F134B1A681EF0100FD6
:1003000008BF20ED108A20E9F04F106009B44FF0CB
:10031000500080F31188BFF34F8FBFF36F8F07F04A
:10032000FDFA4FF0000080F3118809BC19680868D5
:10033000B0E8F04F1EF0100F08BFB0EC108A80F349
:100340000988BFF36F8F704720000020EFF305800E
:10035000704700000948804709480047FEE7FEE76C
:10036000FEE7FEE7FEE7FEE7FEE7FEE7FEE7FEE765
:1003700004480549054A064B70470000396B0008E0
:10038000AD010008C8090020C80F0020C80B0020DC
:10039000C80B0020704753EA020C00F069802DE979
:1003A000F04B4FF00006002B1FBFB3FA83F503FAA2
:1003B00005F424FA05F65E4012BF1643B2FA82F540
:1003C00002FA05F4C5F120051EBF22FA05FC44EA35
:1003D0000C04203556EA044C4FEA144418BF641C40
:1003E0004FF000084FF00009904271EB030C39D335
:1003F000002919BFB1FA81F701FA07F6B0FA80F7C0
:1004000000FA07F6C7F120071EBF20FA07FC46EAEC
:100410000C062037B6FBF4FCA7EB0507103F07F0EE
:100420001F0BCBF120060CFA0BFB2CFA06F644BF8F
:10043000B3460026202FA4BF5E464FF0000B5BEAB8
:10044000060C08BF4FF0010B19EB0B09ABFB027C4C
:1004500048EB0608C01B06FB02CC0BFB03CC71EB80
:100460000C01C1E70B46024641464846BDE8F08B09
:1004700013B54FF000004FF00001AFF30080BDE86E
:100480001C4070470FB4044910B503AA029800F04D
:100490002BF910BC5DF814FB480100202DE9F04158
:1004A0000E460446002020622046E168884730B3AB
:1004B000252805D0D4E901219047206A401CF2E7A5
:1004C000E168204600278847050018D0A5F14100C3
:1004D000192802D820354FF40067324629462046B5
:1004E0002760FFF7BDFE40B1012804D0F61D26F0BD
:1004F00007060836D8E7361DD6E72846DAE7206A29
:10050000BDE8F0812DE9F041064600241068752908
:10051000314616A510D0AFF30080002802DA404221
:1005200013A507E031688A0701D512A502E0490743
:1005300004D511A5012401E0AFF3008000210A22B7
:1005400006F1240709E0B0FBF2FCB0FBF2F302FB7A
:100550001C00303078541846491C0028F3D123463B
:100560002A463046BDE8F04100F064B800000000C3
:100570002D0000002B0000002000000010B5203AE4
:10058000C0F00B80B1E81850203AA0E81850B1E84C
:100590001850A0E81850BFF4F5AF5FEA027C24BF02
:1005A000B1E81850A0E8185044BF18C918C0BDE8F9
:1005B00010405FEA827C24BF51F8043B40F8043BC2
:1005C00008BF7047D20728BF31F8023B48BF11F877
:1005D000012B28BF20F8023B48BF00F8012B7047D1
:1005E0004FF0000200B5134694469646203922BFCC
:1005F000A0E80C50A0E80C50B1F12001BFF4F7AF17
:10060000090728BFA0E80C5048BF0CC05DF804EBF8
:10061000890028BF40F8042B08BF704748BF20F866
:10062000022B11F0804F18BF00F8012B7047704764
:10063000704770472DE9F0470D46994692460446AB
:1006400000F124080168880604D5E06921F0100152
:10065000216000E00120A84201DD471B00E00027E7
:10066000A1697A1902EB0900081AA0612078C00676
:1006700002D42046AFF30080002608E0D4E901212F
:100680001AF806009047206A401C761C20624E45EE
:10069000F4DB2078C0060AD52046AFF3008006E0E0
:1006A000D4E9012130209047206A401C2062381E86
:1006B000A7F10107F4DC07E0D4E9012118F80500EF
:1006C0009047206A401C2062281EA5F10105F3DC3A
:1006D0002046AFF300802078000602D50220BDE856
:1006E000F0870120FBE70000074B70B50D467B4407
:1006F00000F011F80446284600F020F810B14FF041
:10070000FF3070BD204670BD4768000001694A1C7B
:1007100002610878704700B58FB0CDE90131002142
:10072000059105497944CDE9031011466846FFF764
:10073000B5FE0FB000BD0000E5FFFFFF007B00F03D
:1007400080007047754600F02BF8AE4605006946FC
:10075000534620F00700854618B020B5FFF708FE85
:10076000BDE820404FF000064FF000074FF00008B2
:100770004FF0000B21F00701AC46ACE8C009ACE833
:10078000C009ACE8C009ACE8C0098D46704710B597
:100790000446AFF300802046BDE81040FFF774BD6B
:1007A000004870476409002070B50546AC6B206CAA
:1007B00000F0500050BB206C40F4007020642068B2
:1007C000806800F04050E8B9207ED8B92068C06A3F
:1007D00000F4700020B12068806800F4806088B95F
:1007E0002068406820F0200021684860206C20F4D8
:1007F00080702064206C00F4805018B9206C40F0A8
:1008000001002064204601F0CDF80BE0206C00F0E0
:10081000100018B1204601F0C7F803E0A06BC16CCE
:100820002846884770BD70B50546AC6B40202064F3
:10083000606C40F004006064204601F0B5F870BDC3
:1008400070B50446A56B284601F0ADF870BD0000F8
:1008500055494A6822F440324A604A6843681A435C
:100860004A600268526822F4807203685A60026823
:100870005368026943EA022203685A6002685268B8
:1008800022F0407203685A600268526883681A4313
:1008900003685A600268926822F4006203689A60F2
:1008A00002689268C3681A4303689A603F4B826A81
:1008B0009A4218D00268926822F0706203689A60C7
:1008C00002689268836A1A4303689A6002689268B1
:1008D00022F0405203689A6002689268C36A1A4321
:1008E00003689A600BE00268926822F07062036805
:1008F0009A600268926822F0405203689A60026827
:10090000926822F0020203689A6002689368027E8D
:1009100043EA420203689A602022125CA2B1026894
:10092000526842F4006203685A600268526822F416
:10093000604203685A6002685368426A521E43EA82
:10094000423203685A6005E00268526822F400628D
:1009500003685A600268D26A22F470020368DA629D
:100960000268D36A828B521E43EA02520368DA623B
:100970000268926822F4007203689A6002689368C1
:1009800090F8302043EA422203689A600268926835
:1009900022F4806203689A6002689368426943EABD
:1009A000822203689A607047002301400100000F13
:1009B0007CB5044600F028F9054600F01DF906460E
:1009C0000020CDE900040848006800EB800202EB3B
:1009D000C002064800EB82002B463246416A0248BC
:1009E000006800F0DDFE7CBD9C0000203807002080
:1009F0002DE9F04106460F461446A4F120001449A3
:100A0000096801EB4101134B03EB81018968C98837
:100A100048430F49096801EB410103EB81018968F3
:100A20008988CD1DE91705EB5171C910084B1B686A
:100A300003EB4303DFF81CC00CEB83039B681B68CC
:100A400000FB01323946304600F030FDBDE8F08150
:100A50009C0000201808002010B504480068806839
:100A600018B1024909688868804710BDA0000020BD
:100A70002DE9FF5F044615461F464FF001084FF071
:100A800000090026B246AB4600E0761C1BF8011BAD
:100A90000029FAD100F0B0F83949096801EB4101A9
:100AA000384A02EB810189688988B0FBF1FA012F8D
:100AB00004D0022F15D0032F23D110E0AAEB06009B
:100AC0002F49096801EB41012E4A02EB8101896837
:100AD0008988484304EB50001FFA80F813E0A046D1
:100AE00011E0AAEB06002649096801EB4101254AFD
:100AF00002EB81018968898800FB01401FFA80F8B8
:100B000001E0A04600BF00BF15E02A7840460199E9
:100B1000FFF76EFF1A48006800EB4000194901EB2F
:100B200080008068808840441FFA80F86D1C09F1BD
:100B300001001FFA80F900F05FF81149096801EB24
:100B40004101104A02EB81018968898809FB110083
:100B500080B20B49096801EB410102EB8101896810
:100B60008988884201D3012000E00020297809B15A
:100B7000012100E0002108400028C6D1BDE8FF9F08
:100B80009C0000201808002070B504460D4600F0B7
:100B900025F8C088604386B203232A4631460020E8
:100BA000FFF766FF70BD000070B504460D4616469F
:100BB00000F022F805FB004081000648006800EBC9
:100BC000800202EBC002044800EB8200406A4650FB
:100BD00070BD00009C000020380700200448006819
:100BE00000EB4000034901EB800080687047000083
:100BF0009C0000201808002010B502490968886A86
:100C0000804710BDA000002010B502490968C86ADD
:100C1000804710BDA000002010B52348234908607C
:100C2000092122484161012181611D21C161032106
:100C3000016240F20D11416240F24311816240F2C3
:100C40001711C16240F247110163002180F836108C
:100C500080F8341080F83510082015490860C0204D
:100C60000861042112488161C8031149486208469D
:100C700002F0F4FF00200D49486000210B4881601C
:100C8000C160016100F068F8084802F06DFD094894
:100C90000949086009680868804700F03FF907487B
:100CA00000F02EF9002010BD006801400007002070
:100CB000E8070020B8000020A000002074000020F9
:100CC00030B58DB004460D4600200090FFF794FF2C
:100CD000019000200290FFF797FF039000200490FE
:100CE0000995FF200590002006908DF83000002126
:100CF0008DF831108DF832104FF4C0600790072046
:100D00000890FFF779FF0A90FFF77EFF0B902246CD
:100D100069460E4802F05AFC4FF0FF3004EB4401E4
:100D20000B4A02EB810148600A4804EB440102EBE4
:100D3000810188604FF07F4004EB440142F82100BC
:100D4000024802F073FC0DB030BD00000007002027
:100D5000180800207400002000B587B000BF0020F4
:100D600001905D48006840F080605B49086008467B
:100D7000006800F08060019000BF00BF00BF00204D
:100D8000019055481438006840F400005249143965
:100D900008600846006800F40000019000BF00BF32
:100DA00000BF002001900846006840F00100086084
:100DB0000846006800F00100019000BF00BF00BFBE
:100DC000002001900846006840F0020008600846D4
:100DD000006800F00200019000BF00BF00BF0020CB
:100DE00001900846006840F004000860084600686A
:100DF00000F00400019000BF00BF00BF0020019080
:100E00000846006840F0080008600846006800F0E6
:100E10000800019000BF00BF00BF002001900846FD
:100E2000006840F0200008600846006800F02000DC
:100E3000019000BF00BF00BF00200190084600687D
:100E400040F0400008600846006800F04000019053
:100E500000BF00BF41F6580002900220039000201E
:100E60000490022005900E20069002A91B4801F074
:100E700005FE4FF47060029002A9194801F0FEFDD2
:100E80004FF49860029002A9164801F0F7FD48203F
:100E9000029002A9144801F0F1FD4FF48060029025
:100EA00002A9124801F0EAFD4FF40C60029002A979
:100EB0000F4801F0E3FD032002900920069002A9EB
:100EC000074801F0DBFD4FF4A050029002A908484A
:100ED00001F0D4FD07B000BD4438024000000240DC
:100EE0000004024000080240000C024000140240CE
:100EF0000018024001490860704700009C00002073
:100F00000449096801EB4101034A02EB8101886051
:100F1000704700009C0000201808002010B51F48F2
:100F20001F49086002201F4908600720486004200C
:100F300088600720C860022008614861886101203C
:100F4000174948600021164881600421C1601021C2
:100F50000161402141614FF4C07181610021C16193
:100F60004FF400610162002141624FF4005181623F
:100F7000002100F067F80B49094803F0A1FB18B104
:100F800001200949087002E000200749087040F27A
:100F90006A5000F00BF80448007810BD400100A032
:100FA0003008002064080020A400002038B5044662
:100FB000002000900120214908600820486001209D
:100FC00088600020C8604FF6FF721D4803F0B8FB30
:100FD000012001F0F5FB0220184908600820486054
:100FE000012088600020C8604FF6FF72144803F0AB
:100FF000A7FB03201149086008204860042088608E
:101000000020C8604FF6FF720D4803F099FB4FF4C3
:101010000C700090042009490860082048600120F5
:1010200088600098C8604FF6FF72054803F088FB9F
:101030002146034803F069FB38BD0000800800200A
:101040003008002030B587B004460D46002C7DD016
:1010500000BF002001906D48006840F001006B491E
:1010600008600846006800F00100019000BF00BF62
:1010700000BF0020019065480838006840F48000F7
:101080006249083908600846006800F48000019051
:1010900000BF00BF00BF002001900846006840F07C
:1010A000020008600846006800F00200019000BFDE
:1010B00000BF00BF002001900846006840F0040017
:1010C00008600846006800F00400019000BF00BFFF
:1010D00000BF002001900846006840F0080008604A
:1010E0000846006800F00800019000BF00BF00BF84
:1010F000002001900846006840F010000860084693
:10110000006800F01000019000BF00BF00BF002089
:1011100001900846006840F020000860084600681A
:1011200000F02000019000BF00BF00BF0020019030
:101130000846006840F0400008600846006800F07B
:101140004000019000BF00BF022000E05CE003907F
:101150000590002004900C2006906020029002A9C7
:101160002B4801F08BFC0120029002A9294801F0D4
:1011700085FC4CF20370029002A9274801F07EFC26
:101180004FF68370029002A9244801F077FC4FF6D5
:101190003F00029002A9224801F070FC48F233108F
:1011A000029002A91F4801F069FC00201E49486016
:1011B00080211D4881608900C1604900016189006A
:1011C0004161890081610021C1614FF400310162F8
:1011D00000214162032181620021C1620163134841
:1011E0001149086000BF08462063846300BF01F016
:1011F000CFF80D4801F024FA00220F21382002F028
:1012000095FC382002F07EFC07B030BD3838024033
:101210000004024000080240000C0240001002409E
:1012200000140240001802409008002010640240A0
:1012300070B504460D4601260E4804800E48058010
:101240000E4841688220884740F61101884203D148
:101250000A480B49086000264EB909480068016831
:101260008220884706480068C16882208847304647
:1012700070BD0000AC000020AE000020F000002097
:10128000A800002000BFFEE710B5024800F09EFE57
:1012900010BD0000C40200202DE9F0470C4617469F
:1012A0009C46DDF82080D0F80090D9F8449009F0F1
:1012B000404948EA0C4A49EA0A09D0F800A0CAF8AD
:1012C0004490D0F80090C9F83C70D0F80490B9F57B
:1012D000403F4ED104F07F4604F47F0104F47F4286
:1012E000E3B2D0F80890B9F1000F06D142EA010943
:1012F00049EA060949EA030536E0D0F80890B9F151
:10130000010F04D142EA010949EA03052CE0D0F8B3
:101310000890B9F1020F09D1C90C920ADB084FEA13
:10132000421949EAC12949EA03051DE0D0F80890AD
:10133000B9F1030F0CD1F60FC90CD20ADB084FEA42
:10134000421949EA812949EAC63949EA03050BE00D
:10135000360F090D120B1B094FEA021949EA012940
:1013600049EA063949EA0305D0F80090C9F838502F
:1013700003E0D0F80090C9F80C40BDE8F087000009
:1013800010B5024801F03CF810BD000050020020EA
:1013900010B5024801F034F810BD0000F001002043
:1013A0000146087810381823B0FBF3F20848805C37
:1013B000C865032A05D908686FF30900001D886510
:1013C00003E008686FF309008865886D70470000C6
:1013D000327B0008014600208A6A8B69CBB932B1A2
:1013E000012A0DD0022A03D0032A10D10EE000BF3B
:1013F000CB6A03F08073B3F1807F00D1012007E056
:10140000CB6AB3F1C07F00D1012001E000E000BF52
:1014100034E08B69B3F5005F1AD132B1012A07D0ED
:10142000022A03D0032A11D10AE000BF01200EE0F6
:10143000CB6A03F08073B3F1807F00D1012006E016
:10144000CB6AB3F1C07F00D1012000E000BF15E0FE
:1014500032B1012A05D0022A04D0032A0CD103E0BC
:1014600000BF00BF012008E0CB6A03F08073B3F136
:10147000807F00D1012000E000BF00BF704730B581
:101480000468246824F4802405682C600468636080
:101490008468402C04D10468A2600468E16003E021
:1014A0000468A1600468E26030BD70472DE9FC5F0C
:1014B0000746894692464FF000080026002000901B
:1014C0003A48006800EB4000394901EB8000806831
:1014D000B0F806B03548006800EB400001EB800032
:1014E00080688588E81DC11700EB5171C910C5EBF4
:1014F000C101C9B2019100BF54E0E81DC11700EB62
:101500005171C91001FB08A4C11700EB5171C9103A
:10151000012904D0022905D0032909D109E0207846
:1015200000900FE06078217840EA0120009009E007
:1015300000BF20780004617840EA0120A1780843C8
:10154000009000BF00BF002624E0A91B01980844BA
:10155000401E012101FA00F00099084060B11349D2
:10156000096801EB4101124B53F82120B91988B2E7
:101570004946FFF719FB0CE00C49096801EB4101F2
:101580000B4B03EB81014A68B91988B24946FFF752
:101590000BFB761CAE42D8D309F101001FFA80F98B
:1015A00008F10108D845A8D3BDE8FC9F9C000020A5
:1015B0001808002010B504460AE01A481A490978AC
:1015C000445419480078401C17490870002010BD89
:1015D0000A2CF2D1154800781A2802D100201349AC
:1015E0000870104911480078FFF7CEFA00200E4924
:1015F000087009E020200B490B4A127888540A48E9
:101600000078401C08490870074800781428F1D178
:1016100006480078401C05490870002002490870FF
:1016200000BFD4E7500900204601002047010020F8
:1016300072B600BFFEE702460868B0B9D1E90103FF
:101640001843CB6818430B6918434B6918438B69DF
:101650001843CB6918430B6A18434B6A1843136845
:101660006FF30E031843106019E0D1E90703184324
:101670004B6A1843136823F4F84318431060D1E908
:1016800001031843CB6818430B6918434B6918438F
:101690008B69184353686FF30E03184350600020A2
:1016A00070470246506943F6FE73984340EA410092
:1016B0005061002070472DE9F04105460C46164662
:1016C0000027D4E900010843A168491E40EA4110FF
:1016D000E16840EA412029696FF315010843286158
:1016E00001F0DAFA07460AE0701C40B126B101F0B9
:1016F000D3FAC01BB04202D90320BDE8F081A8692B
:1017000000F020002028EFD00020F6E730B5034697
:10171000FAB90868401E4C68641E40EA04148868E0
:10172000401E44EA0024C868401E44EA0034088A87
:10173000401E44EA0044888A401E44EA0054087E61
:10174000401E44EA00609C6804F0704420439860A6
:1017500022E0C868401E0403888A401E44EA005004
:101760009C680E4D2C40204398600868401E4C68D1
:10177000641E40EA04148868401E44EA0024088A73
:10178000401E44EA0044087E401E44EA0060DC68D3
:1017900004F070442043D860002030BDFF0F0FFFDD
:1017A0002DE9F84304460D4616461F46DDE9089824
:1017B0004FF440301049486000210F488160C0F864
:1017C0000C900E480C490860084600F0B2FC80B945
:1017D0002146094800F094FB58B933462A46414651
:1017E0000548009700F0ADFD18B90A21024800F045
:1017F000F5FCBDE8F8830000A807002000B0024017
:1018000038B502460020009000BF92F83C00012845
:1018100001D1022038BD012082F83C0000BF0868D9
:10182000092816D91068C0680C780A3C04EB4405F6
:101830000724AC40A0431468E0600C780A3C04EB39
:1018400044048868A0401468E46820431468E06099
:1018500013E0106800690C7804EB44050724AC40E1
:10186000A043146820610C7804EB44048868A0400D
:10187000146824692043146820614868072817D237
:101880001068406B0C79641E04EB84051F24AC4087
:10189000A04314686063088880B20C79641E04EB6E
:1018A0008404A0401468646B20431468606331E0D2
:1018B00048680D2817D21068006B0C79E41F04EB00
:1018C00084051F24AC40A04314682063088880B2BC
:1018D0000C79E41F04EB8404A0401468246B2043BB
:1018E0001468206316E01068C06A0C790D3C04EBA4
:1018F00084051F24AC40A0431468E062088880B2CD
:101900000C790D3C04EB8404A0401468E46A204385
:101910001468E0621E4B1F4C1068A0420AD1086890
:10192000122807D1586820F400005860586840F425
:1019300080005860174C1068A04222D1164C0868ED
:10194000A04202D0086811281BD1586820F48000FA
:101950005860586840F4000058600F4C0868A04276
:101960000FD10E4800680E4CB0FBF4F000EB800085
:101970004000009002E00098401E0090009800286F
:10198000F9D100BF002082F83C0000BF00BF41E752
:101990000023014000200140120000101C00002024
:1019A00040420F00704770477047000070B5044612
:1019B00000250CB9012070BD1549A06A884200D0ED
:1019C00000BF206C30B9204600F024F8002060648D
:1019D00084F83C00206C00F0100088B9206C20F4E2
:1019E000885040F0020020642046FEF731FF0020BE
:1019F0006064206C20F0020040F00100206400E0F0
:101A0000012500BF002084F83C0000BF2846D2E733
:101A10000100000F10B586B00446142101A8FEF79E
:101A2000DFFD4249206888422ED100BF002000908F
:101A30003F48006840F480703D49086008460068EF
:101A400000F48070009000BF00BF3A483A49086037
:101A500000204860002138488160C1604FF48061F7
:101A6000016149004161890081614911C161002121
:101A70000162416200F0E4FD08B1FFF7D9FD00BF4B
:101A80002D48A06384634FE02C49206888424BD1E5
:101A900000BF002000902648006840F48060244980
:101AA00008600846006800F48060009000BF00BF36
:101AB00000BF002000901E481438006840F020004D
:101AC0001B49143908600846006800F020000090A7
:101AD00000BF00BF4020019003200290002003902F
:101AE00001A9174800F0CAFF12486038154908607C
:101AF00080054860002113488160C1604FF4806117
:101B0000016149004161890081614911C161002180
:101B10000162416200F094FD08B1FFF789FD00BF4A
:101B20000848A063846300BF06B010BD00200140D8
:101B30004438024070640240F0010020002201405D
:101B40000014024050020020F8B504460D46164627
:101B50000020009000BF94F83C00012801D1022031
:101B6000F8BD012084F83C0000BF2068806800F0C8
:101B70000100A0B92068806840F0010021688860F9
:101B8000554800685549B0FBF1F000EB400000906B
:101B900002E00098401E009000980028F9D12068CB
:101BA000806800F48070B0F5807F05D1206880687F
:101BB00020F48070216888602068806800F001004F
:101BC00000287ED0206C40F20161884340F4807090
:101BD00020642068406800F4806028B1206C20F404
:101BE000005040F480502064206C00F48050B0F528
:101BF000805F04D1606C20F00600606401E000208A
:101C0000606400BF002084F83C0000BF344F3548BA
:101C1000A16BC8633448A16B08643448A16BC864E5
:101C20006FF02200216808602068406840F0806002
:101C3000216848602068806840F48070216888606E
:101C4000226802F14C0133462A46A06B00F06EFD7B
:101C5000786800F01F0018BB25492068884213D01F
:101C600024492068884204D1381D006800F01F0014
:101C700050B12149206888422BD11948001D0068C5
:101C800000F01F00102824D22068806800F0405027
:101C9000F8B92068806840F080402168886018E0CA
:101CA00013492068884214D12068806800F04050B1
:101CB00078B92068806840F080402168886008E03A
:101CC000FFE7206C40F010002064606C40F00100E1
:101CD0006064002044E700001C00002040420F0028
:101CE00000230140A9070008410800082708000850
:101CF00000200140002101400022014010B50446AF
:101D00000CB9012010BD607920B900202071204657
:101D100000F004F8012060710020F3E708B50A4ADA
:101D2000016891420FD100BF002100910749096865
:101D300041F48051054A11601146096801F480514F
:101D4000009100BF00BF08BD0030024030380240A3
:101D50007047F0B50346002603B109B90120F0BD74
:101D600000BF5879012801D10220F8E701205871FD
:101D700000BF022018711868046802F0100740F6CE
:101D8000FE70B8408443D1E9000740EA070502F03D
:101D9000100005FA00F00443186804601868006831
:101DA00002F0100CC02707FA0CF7B8431F68386020
:101DB0000120187100BF0020587100BF3046CEE7E7
:101DC000704770B50446206805682068466B05F4C6
:101DD0000050B0F5005F17D106F40050B0F5005F79
:101DE00012D104202071206940F0010020614FF4DD
:101DF0000050216848632068006820F48050216802
:101E000008602046FFF7DCFF05F00050B0F1005FEE
:101E100017D106F00050B0F1005F12D104202071FC
:101E2000206940F0020020614FF0005021684863B3
:101E30002068006820F08050216808602046FFF785
:101E400087FF70BD10B504460CB9012010BD207984
:101E500020B900206071204600F008F802202071AF
:101E600000202061012020710020EFE710B586B02E
:101E70000446142101A8FEF7B3FB1D4920688842DF
:101E800033D100BF002000901A48006840F0005095
:101E9000184908600846006800F00050009000BF34
:101EA00000BF00BF0020009012481038006840F0CA
:101EB00001001049103908600846006800F0010070
:101EC000009000BF00BF202001900320029000205E
:101ED000039001A9084800F0D1FD00220521362019
:101EE00001F024FE362001F00DFE06B010BD00000A
:101EF000007400404038024000000240704700007B
:101F000070B502460C465068B0F5403F02D05068AC
:101F100000B100BF00BF92F83800012801D10220B3
:101F200070BD012082F8380000BF022082F839001D
:101F300002F1180000EB04110E89486840EA0643DC
:101F4000214D48680A2802D04868092804D1C86889
:101F500000F07F40034302E0087B43EA0063A4B93A
:101F60001068406AA84318431668706208681668CB
:101F7000B06148680A2802D04868092819D1C868A1
:101F800020F07F401668B06213E01068C069A84373
:101F900018431668F06108681668306148680A28B6
:101FA00002D04868092804D1C86820F07F4016682C
:101FB0003062012082F8390000BF002082F838002A
:101FC00000BF00BFACE700000F0003FF70B5044680
:101FD000206845682068066805F00100E0B106F455
:101FE0008070C8B12068006820F4807021680860A3
:101FF000E06B40F00100E06301202168886004206C
:1020000084F8390000BF002084F8380000BF606900
:1020100010B120466169884705F02000E0B106F460
:102020000050C8B12068006820F4005021680860A2
:10203000202021688860E06B40F00200E06304200B
:1020400084F8390000BF002084F8380000BF6069C0
:1020500010B120466169884705F00800E0B106F438
:102060000060C8B12068006820F400602168086042
:10207000082021688860E06B40F00400E0630420E1
:1020800084F8390000BF002084F8380000BF606980
:1020900010B120466169884705F0040070B106F46C
:1020A000806058B12068006820F480602168086072
:1020B000042021688860204600F06BF805F00200DB
:1020C000D0B106F40070B8B12068006820F4007048
:1020D00021680860022021688860E06BE0630120CD
:1020E00084F8390000BF002084F8380000BF206960
:1020F00010B120462169884705F01000C0B106F4F0
:102100008050A8B12068006820F4805021680860E1
:10211000102021688860E06BE063012084F83900BA
:1021200000BF002084F8380000BF2046FFF7E6FE1D
:1021300070BD10B504460CB9012010BD94F83900EB
:1021400028B9002084F83800204600F023F8022047
:1021500084F839002068006820F440306168084342
:10216000216808602068406B20F00700A1680843E0
:10217000216848632068006C6FF30D00E168084334
:10218000216808640020E063012084F83900002001
:10219000D3E7704738B504460E492068884217D106
:1021A00000BF002000900C48006840F400000A497D
:1021B00008600846006800F40000009000BF00BFFF
:1021C000002205215A2001F0B1FC5A2001F09AFCAE
:1021D00038BD000000B0024030380240F8B5044677
:1021E0000D46002000902068006800F001000028E3
:1021F00043D000F051FD064639E020684068009069
:10220000009800F02100E0B1009800F0200018B123
:10221000E06B40F00200E063009800F0010018B1AC
:10222000E06B40F00100E063212021688860042019
:1022300084F8390000BF002084F8380000BF012076
:10224000F8BD681C98B100F027FD801BA84200D89B
:102250006DB9E06B40F02000E063032084F83900A2
:1022600000BF002084F8380000BF0320E8E72068A2
:10227000406800F002000028BFD02068C06900F06C
:1022800020072068406A00F020000743002F4BD051
:1022900000F002FD064641E020684068009000988A
:1022A00000F0290020B3009800F0080018B1E06B9E
:1022B00040F00400E063009800F0200018B1E06BEB
:1022C00040F00200E063009800F0010018B1E06BFC
:1022D00040F00100E063292021688860042084F830
:1022E000390000BF002084F8380000BF0120A7E7B4
:1022F000681C98B100F0D0FC801BA84200D86DB9D2
:10230000E06B40F02000E063032084F8390000BF58
:10231000002084F8380000BF032091E7206840685F
:1023200000F010000028B7D012202168886001203A
:1023300084F8390000BF002084F8380000BF00BFD7
:102340007EE72DE9F84304460D4616461F46DDF8A4
:10235000208000BF94F83800012802D10220BDE897
:10236000F883012084F8380000BF022084F8390087
:102370003B46324629462046CDF80080FEF78CFFCA
:102380002068006840F00100216808600020E6E74E
:1023900070B504460CB9012070BD94F835000228D0
:1023A00000D1F9E72068006820F00100216808608A
:1023B00000202168086021684860216888602168E1
:1023C000C860216808612120216848612046FEF725
:1023D000E7FF05460020E06320646064A064E064D9
:1023E000206594F85C103F208840A860002060655C
:1023F00084F8350000BF84F8340000BF00BFCBE78D
:10240000F8B50446002000908C4800684FF416513F
:10241000B0FBF1F7A56D2E6894F85C100820884099
:10242000304098B12068006800F0040070B1206866
:10243000006820F004002168086094F85C1008200F
:102440008840A860606D40F00100606594F85C1001
:1024500001208840304068B12068406900F0800069
:1024600040B194F85C1001208840A860606D40F095
:102470000200606594F85C1004208840304068B128
:102480002068006800F0020040B194F85C1004205D
:102490008840A860606D40F00400606594F85C10AE
:1024A00010208840304078B32068006800F00800B1
:1024B00050B394F85C1010208840A8602068006831
:1024C00000F4802080B12068006800F4002028B962
:1024D000206CC8B12046216C884715E0A06C98B1EB
:1024E0002046A16C88470FE02068006800F48070E7
:1024F00028B92068006820F0080021680860206C76
:1025000010B12046216C884794F85C102020884048
:102510003040002865D02068006800F010000028D6
:102520005FD094F85C1020208840A86094F83500B3
:10253000052828D12068006820F01600216808606E
:102540002068406920F0800021684861206C08B94B
:10255000A06C28B12068006820F00800216808609D
:1025600094F85C103F208840A860012084F8350072
:1025700000BF002084F8340000BF206D10B1204659
:10258000216D8847F8BD2068006800F4802080B184
:102590002068006800F4002028B9606C10B1204663
:1025A000616C88471DE0E06BD8B12046E16B88473D
:1025B00017E02068006800F4807068B9206800683F
:1025C00020F0100021680860012084F8350000BF69
:1025D000002084F8340000BFE06B10B12046E16BAE
:1025E0008847606D38B3606D00F00100F0B10520E0
:1025F00084F835002068006820F001002168086038
:1026000000BF0098401C0090B84200D905E0206847
:10261000006800F001000028F3D100BF012084F819
:10262000350000BF002084F8340000BFE06C10B11A
:102630002046E16C884700BFA4E700001C00002092
:102640002DE9F0410446002500F026FB074614B9A9
:102650000120BDE8F081606A00B100BF022084F86B
:10266000350000BF002084F8340000BF20680068F7
:1026700020F00100216808600AE000F00DFBC01B9B
:10268000052805D920206065032084F83500E0E79F
:102690002068006800F001000028EED1206805687D
:1026A00021480540D4E901010843E1680843216954
:1026B000084361690843A1690843E1690843216A45
:1026C00008430543606A042803D1D4E90B01084399
:1026D0000543206805602068456925F00705606AA4
:1026E0000543606A04280DD1A06A0543E06A48B139
:1026F0002046FEF76FFE28B140206065012084F877
:102700003500A6E7206845612046FEF749FE0646EB
:1027100094F85C103F208840B06000206065012084
:1027200084F83500002094E73F8010F02DE9F04751
:1027300004460D4616461F464FF00008D4F8589040
:1027400000BF94F83400012802D10220BDE8F087D0
:10275000012084F8340000BF94F83500012825D109
:10276000022084F83500002060653B463246294649
:102770002046FEF784FE94F85C103F208840C9F89C
:1027800008002068006840F0160021680860206C8E
:1027900028B12068006840F00800216808602068BF
:1027A000006840F001002168086006E000BF0020DA
:1027B00084F8340000BF4FF002084046C6E700002E
:1027C00070B5044600F068FA06462546681C10B14C
:1027D00004480078054400BF00F05EFA801BA84260
:1027E000FAD370BD1800002000B587B0142102A8EC
:1027F000FDF7F6FE3848006808B107B000BD0120BB
:102800003549086000BF002001903448006840F05E
:102810000100324908600846006800F0010001909C
:1028200000BF00BF4FF63F0002900220039000203F
:102830000490032005900C20069002A9284800F07F
:102840001DF9012002900220039000200490032033
:1028500005900C20069002A9224800F00FF948F2DA
:102860003310029002200390002004900320059072
:102870000C20069002A91C4800F000F94FF6837066
:1028800002900220039000200490032005900C2069
:10289000069002A9154800F0F1F84CF2037002907E
:1028A0000220039000200490032005900C20069045
:1028B00002A90F4800F0E2F8602002900220039085
:1028C00000200490032005900C20069002A90948DE
:1028D00000F0D4F800BF90E708000020383802402C
:1028E000001402400008024000180240001002409C
:1028F000000C024000040240F0B50C460025002206
:10290000002300219EE0012606FA01F504EA0502F3
:10291000AA427CD14D4E8F0856F827308E07370FCC
:102920000F26BE4033404A4EB04201D100262DE072
:10293000484EB04201D1012628E0474EB04201D1B5
:10294000022623E0454EB04201D103261EE0444E4C
:10295000B04201D1042619E0424EB04201D1052611
:1029600014E0414EB04201D106260FE03F4EB04286
:1029700001D107260AE03E4EB04201D1082605E00B
:102980003C4EB04201D1092600E00A268F073F0FD6
:10299000BE409E4224D1384E36689643364F3E6044
:1029A0003E1D366896433F1D3E60334E0C363668FA
:1029B0009643314F0C373E603E1F366896433F1FAB
:1029C0003E608E07370F0F2606FA07F31F4E8F085B
:1029D00056F827609E431D4F4FEA910C47F82C6034
:1029E00006684FEA410C032707FA0CF7BE4306605E
:1029F000CF0800F1200656F827604F074FEAD76C42
:102A00000F2707FA0CF7BE434FEAD10C00E018E09D
:102A100000F1200747F82C60C6684FEA410C0327F5
:102A200007FA0CF7BE43C660476801268E40B743DD
:102A3000476086684FEA410C032707FA0CF7BE434C
:102A40008660491C1029FFF45EAFF0BD08380140D4
:102A5000000002400004024000080240000C024056
:102A6000001002400014024000180240001C024006
:102A70000020024000240240003C0140F8B502461C
:102A80000B460025002400200021E0E0012606FA84
:102A900001F51E6806EA0504AC4274D11E7906F001
:102AA0000306012E04D01E7906F00306022E13D170
:102AB00090684F000326BE40B0434F00DE68BE4022
:102AC00030439060506801268E40B0431E79C6F3B3
:102AD00000168E40304350601E7906F00306032E28
:102AE00009D0D0684F000326BE40B0434F009E6817
:102AF000BE403043D0601E7906F00306022E13D18B
:102B0000CF0802F1200656F827004E07F70E0F26D1
:102B1000BE40B0434F07FF0E1E69BE403043CF0892
:102B200002F1200646F8270010684F000326BE4039
:102B3000B0431E7906F003064F00BE4030431060DC
:102B40005E6806F44036002E1DD000BF00260096B9
:102B5000414E366846F480463F4F3E603E463668FA
:102B600006F48046009600BF00BF3C4E8F0856F822
:102B700027008E07370F0F26BE40B043384EB242B3
:102B800002D100262EE061E0364EB24201D101268C
:102B900028E0354EB24201D1022623E0334EB24244
:102BA00001D103261EE0324EB24201D1042619E0C3
:102BB000304EB24201D1052614E02F4EB24201D16F
:102BC00006260FE02D4EB24201D107260AE02C4E18
:102BD000B24201D1082605E02A4EB24201D10926AF
:102BE00000E00A268F073F0FBE4030431B4E8F0880
:102BF00046F82700244E3068A0435E6806F480162D
:102C000006B12043204E3060361D3068A0435E6818
:102C100006F4001606B120431B4E361D30601A4ED6
:102C2000361F3068A0435E6806F4003606B12043C4
:102C3000154E361F3060361F3068A0435E6806F4BC
:102C4000803606B12043104E083E3060491C1029E2
:102C5000FFF41CAFF8BD00004438024008380140C2
:102C6000000002400004024000080240000C024044
:102C7000001002400014024000180240001C0240F4
:102C80000020024000240240083C01400AB181615A
:102C900001E00B0483617047014800687047000041
:102CA00010000020024692F83D0020281ED124206A
:102CB00082F83D001068006820F001001368186079
:102CC0001068406A20F01000136858621068406A6B
:102CD0000843136858621068006840F001001368E8
:102CE0001860202082F83D00002070470220FCE799
:102CF00010B502460B46002192F83D0020281DD158
:102D0000242082F83D001068006820F0010014685B
:102D100020601068406A81B221F00F0141EA03008F
:102D200081B2106841621068006840F001001468C8
:102D30002060202082F83D00002010BD0220FCE72A
:102D400010B504460CB9012010BD242084F83D00C4
:102D50002068006820F0010021680860204600F02B
:102D60002FFB0020206484F83D00206384F83E009F
:102D700000BF84F83C0000BF00BFE5E7014691F8C2
:102D80003D00704770B504460CB9012070BD94F841
:102D90003D0028B9002084F83C00204600F02EFBBE
:102DA000242084F83D002068006820F0010021689C
:102DB00008602068006840F40040216808602068CE
:102DC000006820F400402168086001F0B3F905466E
:102DD0005C496068884206D85B48854201D2012080
:102DE00007E0002005E05948854201D2012000E0BB
:102DF0000020012800D1C9E75548B5FBF0F620684E
:102E0000406820F03F003043216848604D496068C9
:102E1000884201D8701C07E04FF4967070434FF45D
:102E20007A71B0FBF1F0401C2168096A21F03F0182
:102E300008432168086243496068884214D8681EC4
:102E400061684900B0FBF1F0401CC0F30B0004289E
:102E500001D204203DE0681E61684900B0FBF1F03A
:102E6000401CC0F30B0034E0A06838B9681E6168EC
:102E700001EB4101B0FBF1F0401C0AE0681E616803
:102E800001EBC10202EB0111B0FBF1F0401C40F478
:102E90008040C0F30B0008B901201AE0A06848B9CF
:102EA000681E616801EB4101B0FBF1F0401CC0F30A
:102EB0000B000CE0681E616801EBC10202EB01111E
:102EC000B0FBF1F0401CC0F30B0040F4804040F434
:102ED00000402168C9694CF6FF729143084321689C
:102EE000C861D4E9070108432168096821F0C001DD
:102EF000084321680860D4E9031008432168896801
:102F000048F2FF329143084321688860D4E9050103
:102F100008432168C96821F0FF0108432168C8609F
:102F20002068006840F001002168086000202064EB
:102F3000202084F83D000020206384F83E0000BF7C
:102F400024E70000A086010080841E0000093D00E7
:102F500040420F002DE9FC5F04460F46904699461B
:102F6000DDE90CAB0E9EFFF797FE054694F83D0099
:102F7000202870D119230122B5492046009502F07E
:102F8000E2FB10B10220BDE8FC9F00BF94F83C00BA
:102F9000012801D10220F6E7012084F83C0000BF9F
:102FA0002068006800F0010028B92068006840F03F
:102FB0000100216808602068006820F40060216832
:102FC0000860222084F83D00402084F83E00002064
:102FD0002064C4F824A0A4F82AB0608D20859D4800
:102FE000E0624B46424639462046CDE9006502F094
:102FF00057FA08B10120C6E7208D88B900BF00202C
:10300000019020684069019020688069019000BFAC
:1030100000BF2068006840F400702168086040E04C
:10302000208D012818D12068006820F48060216874
:10303000086000BF0020019020684069019020686E
:103040008069019000BF00BF2068006840F40070F4
:103050002168086025E0F8E0208D022816D120685C
:10306000006820F48060216808602068006840F4EF
:1030700000602168086000BF00200190206840695E
:10308000019020688069019000BF0AE000BF002025
:10309000019020684069019020688069019000BF1C
:1030A00000BFC3E0208D03287ED8208D012815D1D4
:1030B0002A463146204602F022FC08B1012062E790
:1030C00020680069616A0870606A401C6062208D37
:1030D000401E2085608D401E6085A7E0208D02285F
:1030E0002AD1334600225C492046009502F02BFB92
:1030F00008B1012047E72068006840F400702168AB
:10310000086020680069616A0870606A401C60623B
:10311000208D401E2085608D401E608520680069DE
:10312000616A0870606A401C6062208D401E2085C4
:10313000608D401E608579E0334600224649204676
:10314000009502F000FB08B101201CE72068006830
:1031500020F480602168086020680069616A087056
:10316000606A401C6062208D401E2085608D401E7C
:1031700060853346002238492046009502F0E3FA84
:1031800008B10120FFE62068006840F40070216863
:10319000086020680069616A0870606A401C6062AB
:1031A000208D401E208500E010E0608D401E60856F
:1031B00020680069616A0870606A401C6062208D46
:1031C000401E2085608D401E60852FE02A463146D6
:1031D000204602F094FB08B10120D4E62068006983
:1031E000616A0870606A401C6062208D401E208504
:1031F000608D401E608520684069C0F38000A8B1E2
:10320000208D032805D12068006820F480602168A3
:10321000086020680069616A0870606A401C60622A
:10322000208D401E2085608D401E6085208D0028E9
:103230007FF438AF202084F83D00002084F83E0061
:1032400000BF84F83C0000BF9DE602209BE6000022
:10325000020010000000FFFF040001002DE9FC5FE8
:1032600004460F4690469946DDE90CAB0E9EFFF7EB
:1032700013FD054694F83D0020287DD11923012235
:103280004D492046009502F05EFA10B10220BDE8DB
:10329000FC9F00BF94F83C00012801D10220F6E712
:1032A000012084F83C0000BF2068006800F00100A5
:1032B00028B92068006840F0010021680860206893
:1032C000006820F4006021680860212084F83D0037
:1032D000402084F83E0000202064C4F824A0A4F814
:1032E0002AB0608D20853548E0624B46424639461B
:1032F0002046CDE9006502F083F908B10120C6E758
:1033000031E02A463146204602F03EFB50B1206CA7
:10331000042805D12068006840F400702168086026
:103320000120B4E7606A007821680861606A401C87
:103330006062208D401E2085608D401E6085206863
:103340004069C0F3800070B1208D60B1606A007880
:1033500021680861606A401C6062208D401E2085E3
:10336000608D401E6085208D0028CAD12A463146D6
:10337000204602F0B5F900E01CE050B1206C0428B2
:1033800005D12068006840F40070216808600120C1
:103390007DE72068006840F4007021680860202004
:1033A00084F83D00002084F83E0000BF84F83C0013
:1033B00000BF6CE702206AE7020010000000FFFF78
:1033C00010B504460949206888420ED108480068B3
:1033D00020F400000649086049150648FFF78CFAFA
:1033E0004FF480710448FFF787FA10BD005C00407D
:1033F00040380240000802400000024010B586B08C
:103400000446142101A8FDF7EBF82A4920688842F8
:103410004DD100BF002000902748006840F0040014
:10342000254908600846006800F00400009000BFCD
:1034300000BF00BF002000900846006840F0010077
:1034400008600846006800F00100009000BF00BF5F
:103450004815019012200290012003900020049052
:103460000420059001A91548FFF708FB4FF4807070
:10347000019012200290012003900020049004206B
:10348000059001A90E48FFF7F9FA00BF002000904F
:1034900009481030006840F4000007491031086006
:1034A0000846006800F40000009000BF00BF06B0AE
:1034B00010BD0000005C00403038024000080240AF
:1034C00000000240034800680349097808440149A4
:1034D00008607047100000201800002010B50D484B
:1034E000006840F400700B4908600846006840F42A
:1034F000806008600846006840F48070086003201F
:1035000000F052FB052000F007F800F0D1FA00208F
:1035100010BD0000003C02402DE9F04188B0044697
:103520000027B84600BF002001902348006840F003
:103530001000214908600846006800F01000019062
:1035400000BF00BF02A903A800F0CCFD069F1FB971
:1035500000F0F0FD054602E000F0ECFD45001748E4
:10356000B5FBF0F0A0F1010815481649086040F2DB
:10357000E7311448C160C0F8048000210161816016
:10358000816101F0FDFC064696B90E4801F046FD4A
:1035900006466EB9362000F0B5FA102C07D200228C
:1035A0002146362000F0C2FA0748046000E00126F8
:1035B000304608B0BDE8F0814038024040420F007C
:1035C000001000401C0500201400002070B50446C7
:1035D0000E46154600BF94F8A000012801D1022034
:1035E00070BD012084F8A00000BF022084F8A10073
:1035F00005EB850101EBC50204F1380101EB820006
:1036000034223146FCF7BAFF2A463146204602F002
:1036100025FC01202168486284F8A10000BF002039
:1036200084F8A00000BF00BFDAE70000014600BF39
:1036300091F8A000012801D102207047012081F8F3
:10364000A00000BF022081F8A1000848006840F4F3
:103650008030064A1060012081F8A10000BF0020E0
:1036600081F8A00000BF00BFE7E700001868014034
:10367000704770B504462068856B2068466B05F07E
:103680000400E0B106F00400C8B12068406B20F0EF
:1036900004002168486304202168C863D4F8A400AA
:1036A00040F00100C4F8A400042084F8A10000BF89
:1036B000002084F8A00000BF2046FFF7D9FF05F0E6
:1036C0000200E0B106F00200C8B12068406B20F0B3
:1036D00002002168486302202168C863D4F8A4006E
:1036E00040F00200C4F8A400042084F8A10000BF48
:1036F000002084F8A00000BF2046FFF7B9FF05F0C6
:103700000100A8B106F0010090B12068406B20F0E4
:1037100001002168486301202168C86384F8A10082
:1037200000BF002084F8A00000BF204600F0A8F8E9
:1037300005F00800B0B106F0080098B12068406BB1
:1037400020F008002168486308202168C863012030
:1037500084F8A10000BF002084F8A00000BF20462C
:1037600000F0A4F970BD000070B504460CB901204A
:1037700070BD94F8A10028B9002084F8A00020466C
:1037800000F080F8022084F8A1002068806920F011
:10379000704021688861D4E901010843E168084369
:1037A0002169084321688969084321688861206884
:1037B00080683249084021688860A08A0504206832
:1037C0008068A16929430843216888602068C0682F
:1037D0002A4908402168C860A08B05042068C06899
:1037E000216A294308432168C86020680069234989
:1037F000084021680861A08C050420680069A16A5E
:103800002943084321680861206840691B49084032
:1038100021684861A08D050420684069216B294317
:1038200008432168486194F83500050294F8360091
:1038300006042068C06A00F07F402168C86246EA3A
:10384000050094F8341008432168C96A08432168C8
:10385000C8622068406B40F0060021684863206819
:10386000806940F00100216888610020C4F8A4004C
:10387000012084F8A10000207AE7000000F800F0A1
:103880007047000010B592B0044614210DA8FCF753
:10389000A7FE302101A8FCF7A3FE7C4920688842DE
:1038A0007ED10820019064200590052107914FF4F6
:1038B00080300A9001A800F0D1F908B1FDF7B8FEF8
:1038C00000BF002000907248006840F0806070499E
:1038D00008600846006800F08060009000BF00BFEC
:1038E00000BF002000906A481438006840F02000B3
:1038F0006749143908600846006800F0200000900D
:1039000000BF00BF00BF002000900846006840F0E4
:10391000010008600846006800F00100009000BF48
:1039200000BF00BF002000900846006840F0020081
:1039300008600846006800F00200009000BF00BF69
:1039400000BF002000900846006840F0400008607A
:103950000846006800F04000009000BF00BF00BFB4
:10396000002000900846006840F004000860084607
:10397000006800F00400009000BF00BF00BF0020FE
:1039800000900846006840F008000860084600689B
:1039900000F00800009000BF00BF08150D9000E087
:1039A00072E002200E9000200F9010900E201190D7
:1039B0000DA93848FFF762F841F658000D90022033
:1039C0000E9000200F9010900E2011900DA93248FB
:1039D000FFF754F803200D9002200E9000200F9066
:1039E0001090092011900DA92C48FFF747F84FF4CB
:1039F00070600D9002200E9000200F9010900E200D
:103A000011900DA92548FFF739F84FF40C600D907F
:103A100002200E9000200F9010900E2011900DA902
:103A20001F48FFF72BF84FF498600D9002200E907E
:103A300000200F9010900E2011900DA91948FFF74B
:103A40001DF848200D9002200E9000200F9010903D
:103A50000E2011900DA91448FFF710F84FF4A05054
:103A60000D9002200E9000200F90109009201190D0
:103A70000DA90B48FFF702F800220521582000F09D
:103A800055F8582000F03EF812B010BD0068014013
:103A9000443802400014024000000240000402408A
:103AA0000018024000080240000C0240704700006D
:103AB00008B500BF002000901148006840F4804025
:103AC0000F4908600846006800F48040009000BF7D
:103AD00000BF00BF00200090081F006840F0805029
:103AE000091F08600846006800F08050009000BF81
:103AF00000BF00220F21901E00F018F808BD000042
:103B0000443802400146084600280DDB00BF00BFD4
:103B100000F01F0301229A4043099B0003F1E023B8
:103B2000C3F8002100BF00BF00BF70472DE9F05F60
:103B300080460D461646002703F0E0F90746394651
:103B40002A46334601F00700C0F1070ABAF1040F14
:103B500002D94FF0040A01E0C0F1070AD14600F192
:103B6000040ABAF1070F02D24FF0000A01E0A0F1F7
:103B7000030AD4464FF0010A0AFA09FAAAF1010A27
:103B80000AEA020A0AFA0CFA4FF0010B0BFA0CFBD4
:103B9000ABF1010B0BEA030B4AEA0B04214640464A
:103BA00003F0B4F9BDE8F09F00BF00F00702064B38
:103BB00019684FF6FF031940044B0B4343EA0221F7
:103BC000014B196000BF70470CED00E00000FA05E2
:103BD00038B5002400BF002000901D48006840F068
:103BE00080501B4908600846006800F08050009033
:103BF00000BF00BF012017490864FFF74DF80446D5
:103C000007E0FFF749F8001BB0F57A7F01D90320E0
:103C100038BD1148406800F48030B0F5803FF0D1E5
:103C200001200C494864FFF737F8044607E0FFF726
:103C300033F8001BB0F57A7F01D90320E8E7064886
:103C4000406800F40030B0F5003FF0D10020DFE71D
:103C50004038024000000E4200700040F8B50446B3
:103C600000250026207800F0010048B9207800F0F7
:103C70000200022804D0207800F04000402862D1E1
:103C80000020B1498866FFF707F8054606E0FFF710
:103C900003F8401B022801D90320F8BDAB48006897
:103CA000C0F3C0600028F2D1207800F0010038B1E4
:103CB00060688101207A41EA0070A449843108607B
:103CC000207800F00200022819D1A0488430006852
:103CD000C0F3027660688101207B41EA006040EA1F
:103CE00006709A498431086098488C30006820F04A
:103CF0001F00E169491E084394498C31086020780F
:103D000000F0400040280AD160688101207B41EA30
:103D10000061207A41EA00708C49843108600120FA
:103D200089498866FEF7B8FF054606E0FEF7B4FF4E
:103D3000401B022801D90320AFE784480068C0F384
:103D4000C0600028F2D0207800F00400042804D0DD
:103D5000207800F00800082863D100207A4908671D
:103D6000FEF79AFF054606E0FEF796FF401B022885
:103D700001D9032091E775480068C0F3407000281E
:103D8000F2D1207800F00400042819D16F4888305F
:103D90000068C0F3027620698101207D41EA00605D
:103DA00040EA0670694988310860081D006820F4FF
:103DB000F851206A401E41EA002064498C310860B5
:103DC000207800F00800082817D160488830006883
:103DD000C0F303662069800140EA0661207E41EA63
:103DE00000705A4988310860081D006820F440308E
:103DF000616A084355498C310860012052490867BF
:103E0000FEF74AFF054606E0FEF746FF401B022884
:103E100001D9032041E74D480068C0F340700028F5
:103E2000F2D0207800F0200020287DD100BF0020B3
:103E3000009046484030006840F08050434940318F
:103E400008600846006800F08050009000BF00BF86
:103E50003F48006840F480703D490860FEF71CFF51
:103E6000054606E0FEF718FF401B022801D9032093
:103E700013E73748006800F480700028F2D0334818
:103E80007030006800F440764EB3208D00F440702E
:103E9000B04224D02D487030006820F440760120D4
:103EA0002C490860002008602848703006600068CF
:103EB00000F0010098B1FEF7EFFE054608E0FEF7BE
:103EC000EBFE401B41F28831884201D90320E4E631
:103ED0001E4870300068C0F340000028EFD000BFDB
:103EE000208D00F44070B0F5407F0CD117480830A9
:103EF000006820F4F810184AA16A114008431349D9
:103F00000831086007E011480830006820F4F81014
:103F10000E49083108600D4870300068218DC1F3EA
:103F20000B010843094900E002E07031086000BF5E
:103F3000207800F01000102803D194F82C000749D5
:103F400008600020A9E60000000047420038024057
:103F500000700040400E4742FFFCFF0FE011474257
:103F600070B504460D460CB9012070BD5848006874
:103F700000F00F00A84209D255490D7008460068AC
:103F800000F00F00A84201D00120EEE7207800F0F9
:103F9000020002281DD1207800F00400042805D179
:103FA0004C48006840F4E0504A490860207800F02E
:103FB0000800082805D14748006840F4604045499A
:103FC00008604448006820F0F000A16808434149B7
:103FD0000860207800F00100A8B36068012807D1CC
:103FE0003C4808380068C0F34040B8B90120BCE73D
:103FF0006068022802D06068032807D13548083875
:104000000068C0F3406048B90120AEE73148083885
:104010000068C0F3400008B90120A6E72D480068F9
:1040200020F00300616808432A490860FEF734FE67
:10403000064609E0FEF730FE801B41F288318842D7
:1040400002D9032091E707E02248006800F00C0045
:104050006168B0EB810FEDD11D48006800F00F00E2
:10406000A84209D91A490D700846006800F00F00EF
:10407000A84201D0012078E7207800F0040004284D
:1040800007D11448006820F4E050E1680843114962
:104090000860207800F00800082808D10D48006862
:1040A00020F46040216940EAC1000A49086000F03C
:1040B00061F808490968C1F30311074A515CC84017
:1040C0000649086006480068FFF726FA00204CE71A
:1040D000003C0240083802403A7B00081C000020E7
:1040E000140000200F2202600D4A126802F0030241
:1040F00042600B4A126802F0F0028260084A1268BD
:1041000002F4E052C260064A126802F46042D20829
:104110000261044A126802F00F020A607047000050
:1041200008380240003C0240014800687047000027
:104130001C00002000B5FFF7F7FF04490968C1F330
:104140008221034A515CC84000BD0000083802408B
:104150004A7B000800B5FFF7E7FF04490968C1F38F
:104160004231034A515CC84000BD0000083802409B
:104170004A7B00082DE9F047002400250026A146CF
:104180002548006800F00C0020B1042805D008285C
:104190003AD105E0DFF8849039E0DFF8849036E02A
:1041A0001D48001F006800F03F041B48001F006806
:1041B00000F4800078B11A481749091F0968C1F353
:1041C0008811A0FB01700146224600233846FCF707
:1041D000E2F805460EE011480F49091F0968C1F3CE
:1041E0008811A0FB01700146224600233846FCF7E7
:1041F000D2F805460848001F0068C0F30140401C83
:104200004600B5FBF6F902E0DFF8109000BF00BFF2
:104210004846BDE8F0870000083802400024F4005A
:1042200000127A00F8B504460CB90120F8BD2078D8
:1042300000F00100002874D0F948006800F00C007C
:1042400004280DD0F648006800F00C00082813D1AF
:10425000F348001F006800F48000B0F5800F0BD118
:10426000EF4808380068C0F34040002859D0606823
:10427000002856D10120D9E700BF6068B0F5803F23
:1042800008D1E7480838006840F48030E44908392C
:1042900008601EE06068B0F5A02F0DD1E048083836
:1042A000006840F48020DE4908390860084600684C
:1042B00040F4803008600CE0D9480838006820F4E9
:1042C0008030D749083908600846006820F480200B
:1042D000086000BF606890B1FEF7DEFC054606E0AE
:1042E000FEF7DAFC401B642801D903209EE7CC4886
:1042F00008380068C0F340400028F1D011E0FEF714
:10430000CBFC054606E0FEF7C7FC401B642801D93C
:1043100003208BE7C24808380068C0F340400028FB
:10432000F1D1207800F0020002285FD1BC4800687B
:1043300000F00C0058B1BA48006800F00C000828E2
:104340001CD1B748001F006800F48000B0B9B44821
:1043500008380068C0F3400020B1E068012801D0AF
:10436000012063E7AE480838006820F0F8002169B2
:1043700040EAC100AA490839086037E0E06800B3A4
:104380000120A8490860FEF787FC054606E0FEF715
:1043900083FC401B022801D9032047E7A0480838C6
:1043A0000068C0F340000028F1D09D48083800683C
:1043B00020F0F800216940EAC100994908390860F5
:1043C00014E0002097490860FEF766FC054606E009
:1043D000FEF762FC401B022801D9032026E7904823
:1043E00008380068C0F340000028F1D1207800F0C0
:1043F000080008282CD16069A8B101208A4908600A
:10440000FEF74AFC054606E0FEF746FC401B022884
:1044100001D903200AE782486C300068C0F34000ED
:104420000028F1D014E000207F490860FEF734FC3A
:10443000054606E0FEF730FC401B022801D90320A8
:10444000F4E677486C300068C0F340000028F1D1F2
:10445000207800F00400042870D10027704838301C
:10446000006800F0805090B900BF002000906C48B8
:104470003830006840F0805069493831086008469B
:10448000006800F08050009000BF00BF012767481F
:10449000006800F48070B0B96448006840F480702F
:1044A00062490860FEF7F8FB054606E0FEF7F4FBFC
:1044B000401B022801D90320B8E65C48006800F4DC
:1044C00080700028F2D000BFA068012808D15448AD
:1044D0006830006840F001005149683108601DE013
:1044E000A06805280DD14E486830006840F00400EF
:1044F0004B49683108600846006840F001000860D8
:104500000CE047486830006820F0010044496831F9
:1045100008600846006820F00400086000BFA0683A
:10452000A8B1FEF7B9FB054609E0FEF7B5FB401B55
:1045300041F28831884202D9032077E626E03848E4
:1045400068300068C0F340000028EED013E0FEF7AA
:10455000A3FB054608E0FEF79FFB401B41F28831B4
:10456000884201D9032061E62D4868300068C0F315
:1045700040000028EFD1012F07D1294838300068CA
:1045800020F0805026493831086000BFA06900281B
:1045900045D02348006800F00C0008285DD0A069D1
:1045A000022845D100201F490866FEF775FB054625
:1045B00006E0FEF771FB401B022801D9032035E617
:1045C000174808380068C0F340600028F1D1D4E9EA
:1045D00007010843616A40EA81110122A06AC2EB27
:1045E000500041EA00412C20005D41EA00600C4986
:1045F000091F086001200B490866FEF74DFB0546C0
:1046000006E0FEF749FB401B022801D903200DE616
:10461000034808380068C0F340600028F1D049E042
:104620000838024000004742800E474200700040B8
:10463000002021490866FEF72FFB054606E0FEF73D
:104640002BFB401B022801D90320EFE51B48006823
:10465000C0F340600028F2D12CE0A069012800D10D
:10466000E4E51648001D0668A069012820D006F47C
:104670008001E06981421BD106F03F01206A81423E
:1046800016D147F6C0703040616AB0EB811F0FD180
:1046900006F440310122A06AC2EB5000B1EB004F9A
:1046A00006D106F070612C20005DB1EB006F01D0E7
:1046B0000120BBE50020B9E5000047420038024078
:1046C00070B504460D460CB9012070BD94F82C005D
:1046D00028B9002084F82D00204600F011F80220AF
:1046E00084F82C00211D2068FCF7A5FF2946D4E999
:1046F0000002FDF70BF8012084F82C000020E4E70D
:1047000010B50446FEF770F810BD70B504460D46AE
:1047100094F82C00022800D170BD94F82C000128D8
:104720000AD1022084F82C0029462068FCF7B9FF42
:10473000012084F82C0001E00120EDE70020EBE7E8
:104740002DE9F04104460E46174694F82C50022DF0
:1047500002D10220BDE8F081012D01D0052D12D13A
:10476000022084F82C003A4631462068FCF7A3FF6B
:104770003068022803D1052084F82C0005E00120D0
:1047800084F82C0001E00120E4E70020E2E710B506
:1047900004460CB9012010BD022084F851002068A5
:1047A000006820F0400021680860204600F072F8A0
:1047B0000020606584F8510000BF84F8500000BFFD
:1047C00000BFE8E7014691F85100704710B5044674
:1047D0000CB9012010BD606A38B96068B0F5827FFD
:1047E00000D105E00021E16102E000212161616169
:1047F0000021A16294F8510028B9002084F85000EB
:10480000204600F05FF8022084F85100206800681C
:1048100020F0400021680860A08800F4827021899F
:1048200001F404410843A18901F400610843217C9B
:1048300001F002010843217D01F001010843218BB1
:1048400001F400710843217F01F038010843202161
:10485000095D01F080010843218D01F400510843F6
:10486000216808600421A06901EA104094F824102E
:1048700001F010010843216848602068C06920F4F5
:1048800000602168C86100206065012084F8510043
:1048900000209FE710B504460749206888420AD1E6
:1048A0000648006820F48010044908604FF46071E5
:1048B0000348FEF721F810BD005001404438024083
:1048C0000014024010B586B00446142101A8FBF77D
:1048D00087FE1B49206888422FD100BF002000902E
:1048E0001848006840F480101649086008460068BF
:1048F00000F48010009000BF00BF00BF00200090B7
:1049000010481438006840F020000E49143908603F
:104910000846006800F02000009000BF00BF4FF480
:104920006070019002200290002003900490052006
:10493000059001A90448FEF7A1F806B010BD0000DB
:104940000050014044380240001402402DE9F84371
:104950000446884616461D464FF0000994F851005B
:10496000012802D04FF00209A8E06068B0F5827F0C
:104970000DD1A06858B9042084F85100334642464E
:1049800041462046009500F07EF9BDE8F88300BF5F
:1049900094F85000012801D10220F6E7012084F8A4
:1049A000500000BFFEF778F90746B8F1000F00D0BD
:1049B00016B94FF0010981E0042084F8510000206D
:1049C0006065C4F83880A687E6872063A086E08605
:1049D00020646064A068B0F5004F0BD120680068C7
:1049E00020F04000216808602068006820F48040C2
:1049F000216808602068006800F04000402805D069
:104A00002068006840F0400021680860E06810BB42
:104A10001DE02068806800F0010050B12068007B34
:104A2000A16B0870A06B401CA063E08F401EE08764
:104A30000DE0FEF731F9C01BA84201D3681C00B994
:104A40002DB94FF00309012084F8510036E0E08FC2
:104A50000028DED121E01DE02068806800F0010020
:104A600050B12068C068A16B0880A06B801CA06357
:104A7000E08F401EE0870DE0FEF70EF9C01BA84254
:104A800001D3681C00B92DB94FF00309012084F847
:104A9000510013E0E08F0028DED13A462946204637
:104AA00001F044FE08B120206065606D10B14FF048
:104AB000010902E0012084F8510000BF00BF00207E
:104AC00084F8500000BF48465FE72DE9F84F0446E0
:104AD000884616461D464FF0000A00BF94F8500065
:104AE000012802D10220BDE8F88F012084F850008F
:104AF00000BFFEF7D1F80746B14694F851000128EF
:104B000002D04FF0020AB7E0B8F1000F00D016B99A
:104B10004FF0010AB0E0032084F8510000206065E6
:104B2000C4F83080A686E686A063A087E08760642C
:104B30002064A068B0F5004F0BD12068006820F019
:104B40004000216808602068006840F480402168C7
:104B500008602068006800F04000402805D0206808
:104B6000006840F0400021680860E068B0F5006F20
:104B700032D1606810B1B9F1010F09D1206B008802
:104B80002168C860206B801C2063E08E401EE08698
:104B90001EE02068806800F0020002280AD1206B25
:104BA00000882168C860206B801C2063E08E401E56
:104BB000E0860DE0FEF770F8C01BA84201D3681C28
:104BC00000B92DB94FF0030A012084F8510053E0D9
:104BD000E08E0028DDD131E0606810B1B9F1010F3D
:104BE00009D1206B007821680873206B401C20637A
:104BF000E08E401EE0861EE02068806800F0020023
:104C000002280AD1206B007821680873206B401CB1
:104C10002063E08E401EE0860DE0FEF73DF8C01BED
:104C2000A84201D3681C00B92DB94FF0030A012036
:104C300084F8510020E0E08E0028DDD13A46294674
:104C4000204601F0BDFD08B120206065A06850B984
:104C500000BF002000902068C06800902068806835
:104C6000009000BF00BF606D10B14FF0010A02E07C
:104C7000012084F8510000BF00BF002084F85000DC
:104C800000BF50462FE72DE9FF5F04468846914656
:104C90001D460E9E012002900020019000BF94F856
:104CA0005000012803D1022004B0BDE8F09F01208C
:104CB00084F8500000BFFDF7EFFF074694F851B0AD
:104CC00060680390AA46BBF1010F0BD00398B0F5C2
:104CD000827F04D1A06810B9BBF1040F02D002207A
:104CE0000190E9E0B8F1000F03D0B9F1000F00D056
:104CF00015B901200190DFE094F85100042802D09A
:104D0000052084F8510000206065C4F83890E587DC
:104D1000A587C4F83080E586A58620646064206895
:104D2000006800F04000402805D02068006840F08E
:104D3000400021680860E068B0F5006F4DD1606800
:104D400010B1BAF1010F09D1206B00882168C86049
:104D5000206B801C2063E08E401EE08636E02068D9
:104D6000806800F00200022810D1E08E70B1029835
:104D700001280BD1206B00882168C860206B801C43
:104D80002063E08E401EE08600200290206880684C
:104D900000F0010068B1E08F58B12068C068A16BD5
:104DA0000880A06B801CA063E08F401EE08701207C
:104DB0000290FDF771FFC01BB04207D3701C28B1F1
:104DC00003200190012084F8510075E0E08E002856
:104DD000C5D1E08F0028C2D14DE0606810B1BAF1B2
:104DE000010F09D1206B007821680873206B401CEB
:104DF0002063E08E401EE08637E02068806800F087
:104E00000200022810D1E08E70B1029801280BD167
:104E1000206B007821680873206B401C2063E08EB3
:104E2000401EE086002002902068806800F00100AB
:104E300068B1E08F58B12068C068A16B0870A06BA2
:104E4000401CA063E08F401EE08701200290FDF728
:104E500023FFC01BB04201D3701C00B92EB9032040
:104E60000190012084F8510026E0E08E0028C4D192
:104E7000E08F0028C1D13A463146204601F0A0FC1F
:104E800020B1012001902020606515E0A06850B994
:104E900000BF002000902068C068009020688068F3
:104EA000009000BF00BF606D10B10120019002E0D2
:104EB000012084F8510000BF00BF002084F850009A
:104EC00000BF0198F0E670477047000030B5024619
:104ED0000B4600BF92F83C00012801D1022030BDF2
:104EE000012082F83C0000BF022082F83D001068DB
:104EF00044681068816824F07004186804431068DE
:104F00004460184D1068A8421BD01068B0F1804F63
:104F100017D0154D1068A84213D0144D1068A84240
:104F20000FD0134D1068A8420BD0124D1068A84244
:104F300007D0114D1068A84203D0104D1068A84248
:104F400005D121F08001586801431068816001207B
:104F500082F83D0000BF002082F83C0000BF00BF87
:104F6000BDE70000000001400004004000080040D0
:104F7000000C0040000401400040014000180040C7
:104F800010B504460CB9012010BD94F83D0028B9B5
:104F9000002084F83C00204600F026F8022084F827
:104FA0003D00211D206801F0E1FD012084F846004C
:104FB00000BF84F83E0001213F20015540200155EB
:104FC0004120015500BF00BF012084F8420043206A
:104FD0000155442001554520015500BF012084F8AA
:104FE0003D000020D0E7000008B50A4A0168914260
:104FF0000FD100BF002100910749096841F001016C
:10500000054A11601146096801F00101009100BFD5
:1050100000BF08BD0000014044380240014691F83D
:105020003D00012801D001207047022081F83D0099
:105030000868C06840F001000B68D8601A4B086827
:1050400098421BD00868B0F1804F17D0174B086802
:10505000984213D0164B086898420FD0154B086839
:1050600098420BD0144B0868984207D0134B08683D
:10507000984203D0124B086898420CD108688068A7
:1050800000F00702062A0CD00868006840F0010012
:105090000B68186005E00868006840F001000B68C4
:1050A00018600020C0E7000000000140000400403C
:1050B00000080040000C0040000401400040014096
:1050C000001800402DE9F04104460D46002700BFBE
:1050D00094F83C00012802D10220BDE8F0810120B3
:1050E00084F83C0000BF022084F83D0020688668F8
:1050F00026F0770626F47F462068866028685028C8
:1051000033D00CDC202850D004DC00284BD01028F1
:1051100051D149E0302849D040284CD139E06028AD
:105120002DD0702807D0B0F5805F03D0B0F5005FB8
:1051300041D10DE041E0D5E902136A68206801F031
:1051400089FD2068866846F077062068866034E02E
:10515000D5E902136A68206801F07CFD2068806848
:1051600040F480402168886027E0EA686968206828
:1051700001F084FD5021206801F077FD1DE0EA6810
:105180006968206801F08DFD6021206801F06DFDE7
:1051900013E0EA686968206801F070FD402120682A
:1051A00001F063FD09E000BF00BF00BF296820686F
:1051B00001F05BFD01E0012700BF00BF012084F882
:1051C0003D0000BF002084F83C0000BF384684E763
:1051D000704770B504462068C5682068066906F007
:1051E0000200022819D105F00200022815D1401F43
:1051F00021680861012020772068806900F00300A1
:1052000018B12046FFF7E4FF05E0204600F097F8CC
:10521000204600F095F80020207706F004000428CE
:1052200019D105F00400042815D1C0432168086194
:10523000022020772068806900F4407018B1204671
:10524000FFF7C6FF05E0204600F079F8204600F0A1
:1052500077F80020207706F00800082819D105F01B
:105260000800082815D1C043216808610420207770
:105270002068C06900F0030018B12046FFF7A8FFBE
:1052800005E0204600F05BF8204600F059F80020C9
:10529000207706F01000102819D105F01000102812
:1052A00015D1C04321680861082020772068C069B3
:1052B00000F4407018B12046FFF78AFF05E0204651
:1052C00000F03DF8204600F03BF80020207706F083
:1052D000010048B105F0010030B16FF00100216814
:1052E0000861204600F02EF806F08000802809D1E1
:1052F00005F08000802805D1C04321680861204660
:10530000FFF7E1FD06F04000402809D105F040001C
:10531000402805D1C04321680861204600F01EF8EE
:1053200006F02000202809D105F02000202805D112
:10533000C043216808612046FFF7C6FD70BD704775
:105340007047000010B5044603492068884201D127
:10535000FEF7B8F810BD000000100040704710B50F
:1053600004460CB9012010BDA06900B100E000BFE7
:1053700094F8410028B9002084F84000204600F04D
:1053800029F8242084F841002068C06820F40050E7
:105390002168C860204601F099FC2068006920F46B
:1053A0009040216808612068406920F02A00216847
:1053B00048612068C06840F400502168C86000203F
:1053C0006064202084F8410084F84200002060637B
:1053D00000BFC8E710B586B00446142101A8FBF74A
:1053E000FFF81B492068884230D100BF00200090A0
:1053F0001848006840F01000164908600846006828
:1054000000F01000009000BF00BF00BF002000901F
:1054100010481438006840F001000E491439086043
:105420000846006800F00100009000BF00BF4FF484
:10543000C06001900220029000200390032004909D
:105440000720059001A90448FDF718FB06B010BD20
:1054500000100140443802400000024000BFFEE757
:10546000014608684069C0F38020B0B16FF48060E5
:105470000A68506100200863202081F83D00002068
:1054800081F83E00086C40F00400086400BF002072
:1054900081F83C0000BF012070470020FCE70000BD
:1054A0002DE9F84304460F4615469946DDE908867E
:1054B0002068006840F48060216808602068006807
:1054C00040F4807021680860434600224FF00111CB
:1054D0002046009600F037F960B12068006800F4BB
:1054E0008070B0F5807F02D14FF4007020640320FB
:1054F000BDE8F88307F0FE002168086133464246A4
:105500003E49204600F07EF908B10120F0E700BFD7
:105510000020009020684069009020688069009019
:1055200000BF00BF32464146204600F02DFA50B180
:10553000206C042805D12068006840F400702168C0
:1055400008600120D4E7B9F1010F03D1E8B2216866
:10555000086117E0C5F3072021680861324641461B
:10556000204600F011FA50B1206C042805D12068C3
:10557000006840F40070216808600120B8E7E8B2D4
:105580002168086132464146204600F0FDF950B1DD
:10559000206C042805D12068006840F40070216860
:1055A00008600120A4E72068006840F4807021684A
:1055B0000860434600224FF001112046009600F09B
:1055C000C2F858B12068006800F48070B0F5807FA0
:1055D00002D14FF400702064032089E7F8B240F054
:1055E000010021680861334642460449204600F024
:1055F00009F908B101207BE7002079E702000100EA
:105600002DE9F8430446884615469946DDE90867C2
:105610002068006840F480702168086033460022EA
:105620004FF001112046009700F08DF860B120681E
:10563000006800F48070B0F5807F02D14FF40070F4
:1056400020640320BDE8F88308F0FE0021680861AB
:105650003B4632462149204600F0D4F808B10120EB
:10566000F0E700BF002000902068406900902068AB
:105670008069009000BF00BF3A463146204600F0E6
:1056800083F950B1206C042805D12068006840F4EB
:105690000070216808600120D4E7B9F1010F03D13F
:1056A000E8B22168086117E0C5F3072021680861A6
:1056B0003A463146204600F067F950B1206C042884
:1056C00005D12068006840F400702168086001205E
:1056D000B8E7E8B2216808610020B3E702000100E2
:1056E00070B504460D46164625E02046FFF7B8FE85
:1056F00008B1012070BD681CE8B1FDF7CDFA801B30
:10570000A84200D8BDB920684069C0F3800090B9B4
:1057100000202063202084F83D00002084F83E0013
:10572000206C40F02000206400BF002084F83C0082
:1057300000BF0120DEE720684069C0F38000002838
:10574000D3D00020D6E72DE9F04104460D46174698
:105750001E46DDF8188038E0701CA8B3FDF79CFAEF
:10576000A0EB0800B04200D876BBC5F30740012883
:105770000AD120684069A9B20840A9B2884201D183
:1057800001200BE0002009E020688069A9B20840F0
:10579000A9B2884201D1012000E00020B84214D112
:1057A00000202063202084F83D00002084F83E0083
:1057B000206C40F02000206400BF002084F83C00F2
:1057C00000BF0120BDE8F081FFE7C5F307400128D5
:1057D0000AD120684069A9B20840A9B2884201D123
:1057E00001200BE0002009E020688069A9B2084090
:1057F000A9B2884201D1012000E00020B842ABD01C
:105800000020DFE72DE9F04104460D4616461F460D
:1058100058E020684069C0F38020E8B12068006843
:1058200040F40070216808606FF48060216848616E
:1058300000202063202084F83D00002084F83E00F2
:10584000206C40F00400206400BF002084F83C007D
:1058500000BF0120BDE8F081701C90B3FDF71CFA79
:10586000C01BB04200D866BBC5F3074001280AD16F
:1058700020684069A9B20840A9B2884201D101203C
:105880000BE0002009E020688069A9B20840A9B2B5
:10589000884201D1012000E0002090B9002020635F
:1058A000202084F83D00002084F83E00206C40F069
:1058B0002000206400BF002084F83C0000BF0120CD
:1058C000C8E7FFE7C5F3074001280AD1206840690F
:1058D000A9B20840A9B2884201D101200BE0002002
:1058E00009E020688069A9B20840A9B2884201D1C4
:1058F000012000E0002000288BD00020AAE770B52E
:1059000004460D46164637E020684069C0F3001093
:10591000A0B16FF0100021684861002020632020B2
:1059200084F83D00002084F83E00206C206400BF15
:10593000002084F83C0000BF012070BDFDF7ACF9E9
:10594000801BA84200D8BDB920684069C0F3801010
:1059500090B900202063202084F83D00002084F8C6
:105960003E00206C40F02000206400BF002084F83E
:105970003C0000BF0120E0E720684069C0F38010D0
:105980000028C1D00020D8E770B504460D46164661
:1059900025E02046FFF764FD08B1012070BD681CBA
:1059A000E8B1FDF779F9801BA84200D8BDB920689D
:1059B0004069C0F3C01090B900202063202084F813
:1059C0003D00002084F83E00206C40F02000206460
:1059D00000BF002084F83C0000BF0120DEE7206803
:1059E0004069C0F3C0100028D3D00020D6E70000E3
:1059F00010B50348FDF7A4F900F032F810BD00001F
:105A00005406002000B587B000BF00200190124866
:105A1000006840F00100104908600846006800F086
:105A20000100019000BF00BF4FF400400290012030
:105A30000490002005904FF40410039002A9074839
:105A4000FDF71CF800220F212820FEF76FF8282010
:105A5000FEF758F807B000BD3038024000000240A1
:105A600010B50D48FDF78AF9A8B90C480A49086035
:105A70000B484860002108488160C1604FF48041B4
:105A80000161002141618161C161016200F00AF898
:105A90000148FDF777F910BD54060020005C004076
:105AA000A086010010B586B00446344920688842BB
:105AB00062D100BF002000903148006840F004002F
:105AC0002F4908600846006800F00400009000BFFD
:105AD00000BF00BF002000900846006840F00100B1
